:020000040800F2
:10000000D0690024F9030008D3300008832F0008CA
:10001000D13000082F0700081D3C00080000000038
:10002000000000000000000000000000390300088C
:100030003107000800000000950300083B3300086A
:100040001304000813040008130400081304000834
:100050001304000813040008130400081304000824
:100060001304000813040008130400081304000814
:100070001304000813040008130400081304000804
:1000800013040008130400081304000813040008F4
:1000900013040008130400081304000813040008E4
:1000A00013040008130400081304000813040008D4
:1000B00013040008130400081304000813040008C4
:1000C00013040008130400081304000813040008B4
:1000D00013040008113C000813040008130400086E
:1000E00013040008130400080000000013040008B3
:1000F0001304000813040008130400081304000884
:100100001304000813040008130400081304000873
:100110001304000813040008D53400081304000871
:100120001304000813040008130400081304000853
:100130001304000813040008130400081304000843
:1001400000000000000000000000000000000000AF
:100150001304000813040008130400081304000823
:100160001304000813040008130400081304000813
:100170001304000813040008130400080000000022
:1001800013040008130400081304000813040008F3
:1001900013040008130400081304000813040008E3
:1001A00013040008130400081304000813040008D3
:1001B00013040008130400081304000813040008C3
:1001C00013040008130400081304000813040008B3
:1001D00013040008130400081304000813040008A3
:1001E0001304000813040008130400081304000893
:1001F0001304000813040008130400081304000883
:100200001304000813040008130400081304000872
:100210001304000813040008130400081304000862
:100220001304000813040008130400080000000071
:100230001304000813040008000000001304000861
:100240001304000813040008130400081304000832
:100250001304000813040008130400081304000822
:100260001304000813040008130400081304000812
:100270001304000813040008130400080000000021
:100280001304000813040008130400080000000011
:10029000000000001304000800F002F800F03CF831
:1002A0000AA090E8000C82448344AAF10107DA45D1
:1002B00001D100F031F8AFF2090EBAE80F0013F0E7
:1002C000010F18BFFB1A43F0010318479C520000AE
:1002D000BC520000103A24BF78C878C1FAD852073F
:1002E00024BF30C830C144BF04680C6070470000B0
:1002F0000023002400250026103A28BF78C1FBD82F
:10030000520728BF30C148BF0B6070471FB505F0CA
:10031000A9F81FBD10B510BD00F0D0F91146FFF7C8
:10032000F5FF03F08DFC00F0EEF903B4FFF7F2FFE8
:1003300003BC00F0F5F900002C4B19680868B0E820
:10034000F04F80F30988BFF36F8F4FF0000080F308
:10035000118870470000000008480068006880F3BA
:1003600008884FF0000080F3148862B661B6BFF3CE
:100370004F8FBFF36F8F00DF00BF00BF08ED00E0BD
:10038000DFF80C00016841F470010160704700BFA4
:1003900088ED00E0EFF30980BFF36F8F134B1A680D
:1003A0001EF0100F08BF20ED108A20E9F04F1060FA
:1003B00009B44FF0500080F31188BFF34F8FBFF3A3
:1003C0006F8F04F011FB4FF0000080F3118809BC1F
:1003D00019680868B0E8F04F1EF0100F08BFB0ECC5
:1003E000108A80F30988BFF36F8F704724000024C0
:1003F000EFF305807047000009488047094800472F
:10040000FEE7FEE7FEE7FEE7FEE7FEE7FEE7FEE7C4
:10041000FEE7FEE704480549054A064B7047000021
:10042000F933000899020008D0630024D069002441
:10043000D0650024D065002453EA020C00F06980E6
:100440002DE9F04B4FF00006002B1FBFB3FA83F5E8
:1004500003FA05F424FA05F65E4012BF1643B2FA19
:1004600082F502FA05F4C5F120051EBF22FA05FC4B
:1004700044EA0C04203556EA044C4FEA144418BFF1
:10048000641C4FF000084FF00009904271EB030C20
:1004900039D3002919BFB1FA81F701FA07F6B0FA8A
:1004A00080F700FA07F6C7F120071EBF20FA07FC05
:1004B00046EA0C062037B6FBF4FCA7EB0507103F15
:1004C00007F01F0BCBF120060CFA0BFB2CFA06F6FB
:1004D00044BFB3460026202FA4BF5E464FF0000B5A
:1004E0005BEA060C08BF4FF0010B19EB0B09ABFBE5
:1004F000027C48EB0608C01B06FB02CC0BFB03CCBE
:1005000071EB0C01C1E70B46024641464846BDE887
:10051000F08B13B54FF000004FF00001AFF30080F7
:10052000BDE81C407047032A40F2308010F0030CF5
:1005300000F0158011F8013BBCF1020F624498BF36
:1005400011F801CB00F8013B38BF11F8013BA2F1D3
:10055000040298BF00F801CB38BF00F8013B11F04E
:10056000030300F05780083AC0F0088051F8043BBC
:10057000083A51F804CBA0E80810F5E7121D5CBF5B
:1005800051F8043B40F8043BAFF30080D20724BF8E
:1005900011F8013B11F801CB48BF11F8012B24BF22
:1005A00000F8013B00F801CB48BF00F8012B704771
:1005B00002F0FF0343EA032242EA024200F05EB87F
:1005C0004FF0000200B5134694469646203922BFEC
:1005D000A0E80C50A0E80C50B1F12001BFF4F7AF37
:1005E000090728BFA0E80C5048BF0CC05DF804EB19
:1005F000890028BF40F8042B08BF704748BF20F887
:10060000022B11F0804F18BF00F8012B7047704784
:100610007047704710B5203AC0F00B80B1E8185011
:10062000203AA0E81850B1E81850A0E81850BFF4DC
:10063000F5AF5FEA027C24BFB1E81850A0E818507B
:1006400044BF18C918C0BDE810405FEA827C24BFCF
:1006500051F8043B40F8043B08BF7047D20728BF5D
:1006600031F8023B48BF11F8012B28BF20F8023BAC
:1006700048BF00F8012B70474FF000020429C0F07A
:10068000128010F0030C3FF49DAFCCF1040CBCF1D0
:10069000020F18BF00F8012BA8BF20F8022BA1EB16
:1006A0000C01FFF78FBF5FEAC17C24BF00F8012B6C
:1006B00000F8012B48BF00F8012B7047754600F089
:1006C0002BF8AE4605006946534620F007008546E4
:1006D00018B020B5FFF79EFEBDE820404FF00006A1
:1006E0004FF000074FF000084FF0000B21F007011A
:1006F000AC46ACE8C009ACE8C009ACE8C009ACE85D
:10070000C0098D46704710B50446AFF300802046FF
:10071000BDE81040FFF709BE004870476C63002435
:1007200001491820ABBEFEE7260002007047FEE735
:10073000704772B6FEE700002DE9F84F044600F05E
:100740000FFC00903CB194F83500022806D08021BF
:1007500061650020E4E00120BDE8F88FC74DC74E79
:10076000C649183520683036DFF81483DFF8149353
:100770008842DFF814A3DFF814B32ED0A8422CD09F
:10078000B0422AD0404528D0484526D0504524D0F4
:10079000584522D0BD4A183290421ED0BC4A9042E1
:1007A0001BD0BB4A1832904217D0B94A303290421F
:1007B00013D0B74A483290420FD0B54A60329042C7
:1007C0000BD0B34A7832904207D0B14A903290426F
:1007D00003D0AF4AA832904209D1026822F01E022B
:1007E00002602068426922F08002426103E00268F0
:1007F00022F00E02026027688F4238464DD0A84290
:100800004BD0B04249D0404547D0484545D05045EF
:1008100043D0584541D09D4A183290423DD09C4A21
:1008200090423AD09A4A1832904236D0984A3032A2
:10083000904232D0964A483290422ED0944A60324A
:1008400090422AD0924A7832904226D0904A9032F2
:10085000904222D08E4AA83290421ED08D4A9042B9
:100860001BD08C4A1432904217D08A4A28329042C8
:1008700013D0884A3C3290420FD0864A5032904280
:100880000BD0844A6432904207D0824A7832904238
:1008900003D0804A8C32974204D1206E026822F441
:1008A0008072026075492068884228D0A84226D00C
:1008B000B04224D0404522D0484520D050451ED0DB
:1008C00058451CD071491831884218D07049884267
:1008D00015D06F491831884211D06D4930318842A6
:1008E0000DD06B494831884209D06949603188424E
:1008F00005D067497831884201D065499031016857
:1009000021F0010101600EE000F02AFB0099401A7D
:10091000052808D9202262650321002084F83510BB
:1009200084F8340017E73868C007EDD1534A012135
:10093000206890422ED0A8422CD0B0422AD0404508
:1009400028D0484526D0504524D0584522D04F4B7A
:10095000183398421ED04E4B98421BD04C4B183344
:10096000984217D04A4B3033984213D0484B483303
:1009700098420FD0464B603398420BD0444B7833AB
:10098000984207D0424B9033984203D0404BA83353
:10099000984208D194F85C703F23A06D07F01F07C0
:1009A000BB40836007E094F85C30A06D03F01F0348
:1009B00001FA03F34360206890424DD0A8424BD027
:1009C000B04249D0404547D0484545D0504543D036
:1009D000584541D02D4A183290423DD02C4A904281
:1009E0003AD02B4A1832904236D0294A30329042BF
:1009F00032D0274A483290422ED0254A6032904267
:100A00002AD0234A7832904226D0214A903290420E
:100A100022D01F4AA83290421ED01E4A90421BD0BC
:100A20001C4A1432904217D01A4A2832904213D0EE
:100A3000184A3C3290420FD0164A503290420BD0A6
:100A4000144A6432904207D0124A7832904203D05E
:100A5000104A8C3290420BD1D4E919024260E06E08
:100A600030B1026822F480720260D4E91C02426054
:100A7000002084F8351084F834006DE61000024040
:100A8000580002407000024088000240A00002406E
:100A900010040240085402582DE9F05F28B190F884
:100AA0003510022904D0802141650120BDE8F09F66
:100AB000904C904B0168183C18338E4ADFF83C92FA
:100AC000A1428D4CDFF838E28E4FDFF83CB2DFF800
:100AD0003CA28F4D8F4E31D091422FD099422DD0D4
:100AE000A1422BD0494529D0714527D0B94225D004
:100AF000DFF810C20CF1180C61451FD0DFF808C2F6
:100B0000ACF1600C614519D0DFF8FCC1ACF1480CC8
:100B1000614513D0DFF8F0C1ACF1300C61450DD068
:100B2000DFF8E4C1ACF1180C614507D0594505D098
:100B3000514503D0A94201D0B1422CD1DFF8B4C154
:100B40004FF0040880F83580ACF1180C61451DD0D9
:100B500091421BD0994219D0A14217D0494515D0D6
:100B6000714513D0B94211D06648183081420DD07A
:100B700065486038814209D063484838814205D0D1
:100B800061483038814201D05F481838086820F049
:100B900001000860ABE0D1F800C02CF00E08DFF8CF
:100BA00054C1C1F80080ACF1180C0168614527D030
:100BB000914225D0994223D0A14221D049451FD04E
:100BC00071451DD0B9421BD0DFF838C10CF1180CAB
:100BD000614515D0DFF830C1ACF1600C61450FD034
:100BE000DFF824C1ACF1480C614509D0DFF818C129
:100BF000ACF1300C614503D0DFF80CC1ACF1180C3E
:100C0000D1F800C02CF0010CC1F800C0DFF8E4807E
:100C10004FF0010C0168A8F11808414546D09142F7
:100C200044D0994242D0A14240D049453ED071457E
:100C30003CD0B9423AD0334A1832914236D0324A87
:100C4000603A914232D0304A483A91422ED02E4AF0
:100C5000303A91422AD02C4A183A914226D059452E
:100C600024D0514522D0A94220D0B1421ED02A4AD8
:100C700091421BD0284A1432914217D0264A28327A
:100C8000914213D0244A3C3291420FD0224A503232
:100C900091420BD0204A6432914207D01E4A7832EA
:100CA000914203D01C4A8C32914218D1016E0A68DD
:100CB00022F480720A6090F85C20816D02F01F02BD
:100CC0000CFA02F24A60D0E919124A60C16E31B1E1
:100CD0000A6822F480720A60D0E91C124A6000227D
:100CE000016D80F835C080F8342001B188470020BC
:100CF000DCE600002800024058000240700002407C
:100D000088000240A00002407004024088040240B3
:100D1000A0040240B8040240085402582DE9F84FDC
:100D200003247D4D00234FF001094FF0B04B4FF0ED
:100D30000F0AE9E009FA03F73A4076D00E7906F097
:100D40000306012E01D0022E18D1D0F808C04FEAB8
:100D5000430ECE6804FA0EF82CEA080C06FA0EF6DA
:100D600046EA0C068660D0F804C00E792CEA070C1F
:100D7000C6F300169E4046EA0C0646600E79F6431E
:100D8000B6070BD0C6684FEA43088F6804FA08FC20
:100D900026EA0C0607FA08F73743C7600E7906F013
:100DA0000306022E12D1DE080F694FEA437C00EBE6
:100DB0008606B646366A4FEADC6C0AFA0CF807FA81
:100DC0000CF726EA08063743CEF820700F7906683C
:100DD0004FEA430807F0030704FA08FC07FA08F78C
:100DE00026EA0C06374307604E6816F4403F1CD0D5
:100DF0004A4E376847F00207376036689F0706F0AB
:100E00000206009623F0030606F1B046B6463F0FF1
:100E1000D6F80864DFF808810AFA07FC404526EA9C
:100E20000C0603D14FF0000C41E06CE0DFF8F4C099
:100E3000604502D14FF0010C39E0DFF8ECC06045AD
:100E400002D14FF0020C32E0DFF8E0C0604502D181
:100E50004FF0030C2BE0DFF8D8C0604502D14FF013
:100E6000040C24E0DFF8CCC0604502D14FF0050C43
:100E70001DE0DFF8C4C0604502D14FF0060C16E05B
:100E8000DFF8B8C0604502D14FF0070C0FE0DFF883
:100E9000B0C0604502D14FF0080C08E0DFF8A4C0F4
:100EA000604502D14FF0090C01E04FF00A0C0CFA3A
:100EB00007FC4CEA060CCEF808C44F68DBF800606B
:100EC000FF0226EA020600D516435F46CBF8006013
:100ED000D1F804C0DBF804605FEA8C2C26EA020635
:100EE00000D516437E606E684F6826EA0206BF038F
:100EF00000D516436E602E684F6826EA0206FF038F
:100F000000D516432E605B1C0A6832FA03F67FF4A4
:100F100011AFBDE8F88F000080000058F44402587B
:100F2000000002580004025800080258000C025841
:100F3000001002580014025800180258001C0258F1
:100F400000200258002402580AB181617047090448
:100F5000FBE7000001480068000C70470010005CCF
:100F60000148806870470000100000240248816832
:100F7000027811448160704710000024032010B5EE
:100F800000F0B0F801F0B8F80F4A1049146813687F
:100F9000C4F3032203F00F038A5CC95C02F01F0252
:100FA00001F01F01D0400A4A20FA01F111600949FD
:100FB00008600F2000F010F808B1012010BD00F00B
:100FC00051F8002010BD00001844025828550008B0
:100FD000200000241C00002410B5102804468AB00C
:100FE0002CD200220146362000F05CF8362000F0BA
:100FF0004BF8174804601748016841F01001016080
:10100000006809A900F010000890684601F000F897
:101010000598B0B101F04CF840000F4900220F4C88
:10102000B0FBF1F10E4840F2E7330460C0E903324F
:10103000491EC0E9011201F0BFFB28B101200AB02E
:1010400010BD01F035F8E8E7054801F0E7FBF6E7E9
:1010500014000024E844025840420F0000100040F1
:101060004C1A0024074882B0016841F00201016077
:10107000006800220F2100F002000090901E02B0D4
:1010800000F010B8F4440258002809DB410900F0D0
:101090001F028900012001F1E0219040C1F8000108
:1010A000704700000E4BF0B41B680D46C3F30223DB
:1010B000C3F10706042E00D90426191D072901D201
:1010C000002300E0DB1E012404FA06F19C40491EC7
:1010D0002940641E994014402143F0BC02F09FBD9A
:1010E0000CED00E0064900F0070210B54FF6FF04D2
:1010F0000868044B204040EA02201843086010BDF5
:101100000CED00E00000FA05134970B50A68D243FF
:10111000520705D5096801F00701814213D118E093
:101120000A6822F0070202430A60FFF719FF0A4D1E
:101130004FF47A760446083D07E000BFFFF710FF42
:10114000001BB04201D9012070BD2868C043800453
:10115000F4D4002070BD00000C48025810B500F017
:1011600085FF05490968054AC1F30211515C01F088
:101170001F01C84010BD0000204402582855000837
:10118000494930B5484C0B1D0A68143409681D687C
:10119000246802F00303C5F30012C1F30531C4F360
:1011A000CC04002914FB02F200EE102AF8EE400AEB
:1011B00075D03F4A9FED3D1AB7EE000A6BB1DFEDE7
:1011C0003D1A012B01D0022B64D002EE101A1168D7
:1011D000F8EE422A81EEA22A21E0334C283C236813
:1011E0009B0612D5344B246801EE901A1168C4F3A3
:1011F000C104F8EE612AE34001EE903AC1F3080120
:10120000F8EE611A81EEA22A0BE001EE901ADFEDF2
:101210002B2A00BFF8EE611A116882EEA12AC1F3F1
:10122000080101EE901A1168F8EE611A40EE811A79
:1012300071EE800A62EE200AC1F3462101EE101A17
:10124000B8EE411A31EE001AC0EE811ABCEEE11A76
:1012500080ED001A1168C1F3064101EE101AB8EED4
:10126000411A31EE001AC0EE811ABCEEE11A80ED8F
:10127000011A1168C1F3066101EE101AB8EE411AA5
:1012800031EE000A80EE801ABCEEC10A80ED020A3F
:1012900030BD04E001EE901ADFED092ABAE7002123
:1012A000016041608160F3E7284402580000003982
:1012B000384402580024744A0090D0030024744C2F
:1012C00020BCBE4B494930B5484C0B1D0A681C3444
:1012D00009681D68246802F00303C5F30022C1F306
:1012E0000551C4F3CC04002914FB02F200EE102ACD
:1012F000F8EE400A75D03F4A9FED3D1AB7EE000A5E
:101300006BB1DFED3D1A012B01D0022B64D002EE50
:10131000101A1168F8EE422A81EEA22A21E0334C1D
:10132000283C23689B0612D5344B246801EE901AA2
:101330001168C4F3C104F8EE612AE34001EE903A6B
:10134000C1F30801F8EE611A81EEA22A0BE001EE6A
:10135000901ADFED2B2A00BFF8EE611A116882EEB9
:10136000A12AC1F3080101EE901A1168F8EE611A82
:1013700040EE811A71EE800A62EE200AC1F3462126
:1013800001EE101AB8EE411A31EE001AC0EE811AC1
:10139000BCEEE11A80ED001A1168C1F3064101EEBE
:1013A000101AB8EE411A31EE001AC0EE811ABCEEE6
:1013B000E11A80ED011A1168C1F3066101EE101AFD
:1013C000B8EE411A31EE000A80EE801ABCEEC10A76
:1013D00080ED020A30BD04E001EE901ADFED092A2B
:1013E000BAE70021016041608160F3E728440258B8
:1013F00000000039404402580024744A0090D00391
:101400000024744C20BCBE4B2DE9FE4F0546DFF88E
:10141000E48350F8081B0024F64FC943019005F1FE
:101420002800264608F12408009008011DD4A86E63
:1014300050B1B0F5801F0CD0B0F5001F0ED0B0F544
:10144000401F1ED001240FE0386840F4003038609F
:1014500017E00198022101F03DFE03E0009802210F
:1014600001F0C8FE04000CD026462888C043C00501
:1014700023D4A86D05281ED2DFE800F00C11161B3E
:101480001B00AA6ED8F8001021F440111143C8F8CF
:101490000010EAE7386840F40030386009E001984D
:1014A000002101F017FE03E00098002101F0A2FEE8
:1014B000044674B100E0012426462888C043800514
:1014C00028D4E86D80281ED00CDC90B140280ED1C5
:1014D00014E0AA6DD8F8001021F007011143C8F8F4
:1014E0000010EAE7C02813D0B0F5807F10D00124A7
:1014F0000FE0386840F40030386009E001980021BE
:1015000001F0E8FD03E00098002101F073FE0446BD
:101510009CB126462888DFF8DC92C04309F12C09EB
:1015200040052CD4D5F8A800B0F5800F20D00DDCF4
:10153000A0B1B0F5001F0FD115E0EA6DD8F800108A
:1015400021F4E0711143C8F80010E3E7B0F5C00FD3
:1015500013D0B0F5000F10D001240FE0386840F42C
:101560000030386009E00198002101F0B3FD03E08C
:101570000098002101F03EFE04467CB126462888F2
:10158000C04300052DD4D5F8AC00B0F1007F21D0C8
:101590000EDCA8B1B0F1807F10D116E0D5F8A820FC
:1015A000D9F8001021F460011143C9F80010E6E7F2
:1015B000B0F1407F13D0B0F1806F10D001240FE064
:1015C000386840F40030386009E00198002101F0EB
:1015D00081FD03E00098002101F00CFE044674B187
:1015E00026462868C04380011FD4E86CD8B1102873
:1015F0000FD0202812D0302815D0012414E0D5F8BF
:10160000AC20D9F8001021F0E0611143C9F80010B6
:10161000E7E7386840F40030386004E001980221C0
:1016200001F058FD044674B126462888C043C00422
:101630002BD4286EB0F5005F20D00DDCA0B1B0F542
:10164000805F0FD115E06B48EA6C2030016821F013
:10165000300111430160E8E7B0F5405F13D0B0F509
:10166000804F10D001240FE0386840F4003038601B
:1016700009E00198002101F02DFD03E00098002110
:1016800001F0B8FD04468CB126462888C04380048A
:1016900029D4686EB0F5403F23D010DC08B3B0F514
:1016A000803F14D0B0F5003F0FD115E02A6ED8F876
:1016B000001021F4E0411143C8F80010E5E7B0F54F
:1016C000802F0ED0B0F5A02F0BD001240AE0019896
:1016D000012101F0FFFC03E00098012101F08AFDE7
:1016E000044694B126462888C04340042AD4D5F83D
:1016F000B000B0F1405F23D010DC08B3B0F1805FE0
:1017000014D0B0F1005F0FD115E06A6ED8F8001068
:1017100021F4E0211143C8F80010E4E7B0F1804F54
:101720000ED0B0F1A04F0BD001240AE001980121A6
:1017300001F0D0FC03E00098012101F05BFD0446BC
:1017400074B126462888C04300041FD4286FD8B13E
:10175000B0F1805F0ED0B0F1005F10D0012414E032
:10176000D5F8B020D9F8001021F0E0411143C9F8B4
:101770000010E7E7386840F40030386004E0019872
:10178000012101F0A7FC044674B126462868C04335
:10179000C0011ED4A86CD0B101280ED0022811D0EF
:1017A000032814D0012413E02A6FD8F8001021F088
:1017B00040511143C8F80010E8E7386840F40030A1
:1017C000386004E00198022101F084FC0446ACB1C9
:1017D00026462868DFF81CB0C043ABF11C0B400262
:1017E00052D40548016841F480710160FFF7B8FBED
:1017F000824611E02C44025800480258FA48AA6C6C
:10180000016821F0030111430160E2E7FFF7A8FB43
:10181000A0EB0A00642835D8F4480068C005F5D567
:101820008CBBDFF8C4A3B5F8B4100AF1240ADAF8C7
:10183000000001F4407100F44070884211D0DAF8E1
:101840000010DAF8002021F4407142F48032CAF826
:101850000020DAF8002022F48032CAF80020CAF80A
:101860000010D5F8B400B0F5807F1AD1FFF778FBEF
:10187000029012E0FFF774FB0299411A41F288309E
:1018800081420AD9032426462878DFF85CA3C043A6
:101890000AF1080AC00721D03CE0DAF8000080070E
:1018A000E8D5D5F8B410C1F30120032858460DD06F
:1018B000016821F47C510160B5F8B420DAF8001019
:1018C000C2F30B021143CAF80010DDE7C84A0368EF
:1018D00002EA111223F47C511143ECE7E86F182857
:1018E00016D005DCA0B1082808D0102804D10AE0E1
:1018F00020280DD028280BD001240AE001980121CE
:1019000001F0E8FB03E00098012101F073FC0446BC
:1019100064B126462878C04380071ED4A86F0628E5
:1019200019D2DFE800F0160C11161616EA6FDAF875
:10193000001021F038011143CAF80010EAE70198BD
:10194000012101F0C7FB03E00098012101F052FCE6
:1019500004467CB100E0012426462878C0434007B5
:101960001FD4D5F89400062819D2DFE800F0160C31
:1019700011161616AA6FDAF8001021F007011143AC
:10198000CAF80010E9E70198012101F0A3FB03E088
:101990000098012101F02EFC0446A4B100E00124CE
:1019A00026462878C04380062BD4D5F89000B0F1A5
:1019B000405F24D011DC10B3B0F1805F15D0B0F1DE
:1019C000005F10D116E0D5F89420D9F8001021F06E
:1019D00007011143C9F80010E3E7B0F1804F0ED0C2
:1019E000B0F1A04F0BD001240AE00198002101F0D2
:1019F00071FB03E00098022101F0FCFB044694B166
:101A000026462878C04340062BD4D5F89C00B0F574
:101A1000406F24D011DC10B3B0F5806F15D0B0F555
:101A2000006F10D116E0D5F89020DAF8001021F000
:101A3000E0411143CAF80010E3E7B0F5805F0ED033
:101A4000B0F5A05F0BD001240AE00198002101F05D
:101A500041FB03E00098022101F0CCFB044694B165
:101A600026462878C04300062BD4D5F8A000B0F550
:101A7000C04F24D011DC10B3B0F5005F15D0B0F525
:101A8000804F10D116E0D5F89C20D9F8001021F431
:101A9000E0511143C9F80010E3E7B0F5004F0ED054
:101AA000B0F5204F0BD001240AE00198002101F08D
:101AB00011FB03E00098022101F09CFB044654B1A5
:101AC00026462878C04300071ED4D5F88400B0F518
:101AD000805F0AD00FE0D5F8A020D9F8001021F4DB
:101AE00060411143C9F80010EBE70098022101F0B2
:101AF00081FB00B10126D5F88420DAF8001021F42A
:101B000040511143CAF800102878C043C00613D4CE
:101B1000D5F89800B0F5807F05D10098022101F03A
:101B200069FB00B10126D5F89820D9F8001021F4FE
:101B300040711143C9F800102868C043000316D44F
:101B4000D5F8A40038B1B0F5803F09D0B0F5003F1A
:101B50000BD001240AE00198002101F0BBFA03E058
:101B60000098022101F046FB04468CB12646286805
:101B7000C043400322D4D5F88800B0F5801F11D0AF
:101B8000B0F5001F13D0B0F5401F15D0012414E0AC
:101B9000D5F8A420D9F8001021F440311143C9F838
:101BA0000010E4E7386840F40030386004E0009842
:101BB000012101F01FFB04465CB126462868C043A2
:101BC000C00323D4286DA8B1B0F5803F17D00124FD
:101BD0001BE0D5F88820DAF8001021F440111143F9
:101BE000CAF80010EAE700004C44025800480258C6
:101BF000CFFFFF00386840F40030386004E00198FF
:101C0000022101F067FA0446E4B126462868C04381
:101C1000800005D40098022101F0ECFA00B1012601
:101C20002868C04380031BD4D5F88000B0B1B0F55C
:101C3000807F0FD0B0F5007F10D0B0F5407F0DD081
:101C400001240CE05A482A6D016821F480311143C7
:101C50000160DBE7386840F400303860ECB32646BA
:101C60002868C043C00207D46A6FD8F8001021F07A
:101C700000411143C8F800102868C043C00008D4D0
:101C8000D5F8B820DBF8001021F480411143CBF8DF
:101C900000102868C043800207D4EA6ED8F800100C
:101CA00021F080711143C8F800102868C04340003B
:101CB0000CD4DBF8001021F40041CBF80010DBF865
:101CC0000010D5F8BC201143CBF800102868C043A1
:101CD00008D437486A6D016800E018E021F04051EF
:101CE000114301602868C043000208D4D5F88C2055
:101CF000DAF8001021F440011143CAF800102879E5
:101D00000024C04300F0010020430AD00FE0D5F8C2
:101D10008020DAF8001021F440711143CAF8001055
:101D20009EE70198002101F0D5F900B10646287917
:101D3000C04300F00200204305D10198012101F0C9
:101D4000C9F900B106462879C04300F004002043D9
:101D500005D10198022101F0BDF900B106462879AC
:101D6000C04300F00800204305D10098002101F095
:101D700041FA00B106462879C04300F01000204324
:101D800005D10098012101F035FA00B10646287905
:101D9000C04300F02000044304D10098022101F068
:101DA00029FA00B916B10120BDE8FE8F0020FBE73B
:101DB0004C4402582DE9F05F04000F467ED0DFF856
:101DC0003882D8F8000000F00F00B8420CD2D8F8E2
:101DD000001021F00F013943C8F80010D8F80000B6
:101DE00000F00F00B84269D12078844D40070AD531
:101DF0002069296801F07001884204D9296821F01E
:101E000070010143296020787C4E361D00070AD5F9
:101E10006069316801F07001884204D9316821F0AD
:101E20007001014331602078C0060AD5A06931688D
:101E300001F4E061884204D9316821F4E061014392
:101E400031602078DFF8B4B180060BF1080B0CD5B7
:101E5000E1695846DBF8002002F07002914204D993
:101E6000026822F070020A430260207880070AD5D7
:101E7000E068296801F00F01884204D9296821F03F
:101E80000F01014329602078C0073ED05B49A2685A
:101E90002868183920F470601043286060680228B0
:101EA00018D0032819D00968012819D0490700293A
:101EB0004ADADFF848A1AAF1080A00E044E0DAF8BB
:101EC000002022F007020243CAF80020FFF748F87A
:101ED000814612E009688903E9E709688901E6E7B4
:101EE000C905E4E7FFF73CF8A0EB090141F28830AF
:101EF000814202D90320BDE8F09F6168DAF8000052
:101F000000F03800B0EBC10FECD1207880070AD583
:101F1000E068296801F00F01884204D2296821F0A5
:101F20000F0101432960D8F80010404601F00F016D
:101F3000B9420BD9016821F00F01394301600068F3
:101F400000F00F00B84201D00120D4E7207840070C
:101F50000AD52069296801F07001884204D22968F5
:101F600021F0700101432960207800070AD56069DB
:101F7000316801F07001884204D2316821F07001AB
:101F8000014331602078C0060AD5A069316801F4A8
:101F9000E061884204D2316821F4E061014331609C
:101FA000207880060CD5E1695846DBF8002002F065
:101FB0007002914204D2026822F070020A43026069
:101FC00000F09AF80E492A682B68C2F3032203F046
:101FD0000F038A5CC95C02F01F0201F01F01D040B0
:101FE000084A20FA01F111600749086007480068B3
:101FF000BDE8F05FFEF7F0BF002000521844025821
:1020000028550008200000241C000024140000248F
:1020100070B5144C3F220260124A24680832131D26
:10202000114D04F00704446016681C1D06F4706628
:102030008660166806F00F06C660126802F070022D
:1020400002611A6802F0700242611A6802F4E062EA
:102050008261226802F07002C261286800F00F00FD
:10206000086070BD104402580020005230B500F0E6
:1020700043F80B4A0B490C4B15681468C5F303224F
:1020800004F00F048A5C095D02F01F0201F01F01D9
:10209000D040064A20FA01F119601060084630BDB0
:1020A0001844025828550008200000241C00002471
:1020B00000B5FFF7DBFF05490968054AC1F30211C6
:1020C000515C01F01F01C84000BD00001C440258D3
:1020D0002855000800B5FFF7C9FF05490968054AFA
:1020E000C1F30221515C01F01F01C84000BD000096
:1020F0001C44025828550008454970B545480968F0
:10210000434B103B11F0380208D00111082A03D0CC
:10211000102A0BD0182A0BD0084670BD1968890602
:10212000FBD51968C1F3C101C84070BD3A4870BD04
:102130003749374D18310C1D24350A68096826685F
:102140002D6802F0030406F00102C1F30511C5F386
:10215000CC0515FB02F200EE102AB8EE400AE9B3F6
:102160002F4ADFED2E0AB7EE001A6CB1DFED2D1A03
:10217000012C01D0022C43D002EE101A1068F8EEA8
:10218000422A81EEA22A1EE01C68A40611D51B6813
:1021900001EE901A1168C3F3C103F8EE612AD8402A
:1021A00001EE900AC1F30800F8EE611A81EEA22A4E
:1021B0000BE001EE901ADFED1C2A00BFF8EE611A69
:1021C000106882EEA12AC0F3080001EE900AF8EE32
:1021D000611A40EE201A31EE810A00E015E022EE8D
:1021E000000A1068C0F34620401C00EE900AF8EE8A
:1021F000600A80EE201ABCEEC10A10EE100A70BD13
:1022000001EE901ADFED092AD8E7002070BD00002A
:10221000104402580090D00340787D01000000393E
:10222000304402580024744A0024744C20BCBE4B35
:102230002DE9F05F04007DD0FF4F2078FE4D183768
:10224000DFF8F493103DC00748D0D9F80000396892
:1022500000F03800102815D0182803D101F0030031
:1022600002280FD06068B0F5803F12D010B1B0F5F1
:10227000A02F18D0286820F480302860286820F427
:10228000802009E02868800328D560680028D2D023
:1022900024E0286840F480302860606888B1FEF748
:1022A0005FFE064609E0286840F480202860F0E7D9
:1022B000FEF756FE801B64286FD828688003F7D588
:1022C0000CE0FEF74DFE064605E000BFFEF748FEB7
:1022D000801B6428F0D828688003F7D4207841F266
:1022E0000308D54E0C3E800769D5D9F8000039683F
:1022F00010F038000ED0182801D188070AD0E06805
:1023000090B3296821F0190101432960FEF728FEE6
:10231000824631E02868400702D5E06800288AD06C
:10232000E168286820F0190008432860FEF718FECD
:10233000824607E0DFE000BFFEF712FEA0EB0A00D6
:102340000228B9D828684007F6D500BFFEF702FE7C
:1023500040451BD82069402812D0316821F47C31D7
:1023600041EA003030602AE018E000BFFEF7F8FDD7
:10237000A0EB0A0002289FD828684007F6D5E5E7B9
:10238000306820F47C3040F40030EBE7207C31688A
:1023900021F0FE4141EA0060E4E70DE1286820F009
:1023A00001002860FEF7DCFD824605E0FEF7D8FD5F
:1023B000A0EB0A0002288DD828684007F6D42078C0
:1023C000C0065DD5D9F80000DFF86CB2396800F0BE
:1023D0003800ABF1040B082810D0182803D101F005
:1023E000030001280AD0E0690028286838D040F0AE
:1023F00080002860FEF7B4FD824623E02868C0050F
:1024000023D5E069802876D11FE0206A202821D0DA
:10241000316821F0F84141EA8060306030E000BF6F
:1024200094F82010DBF8002022F07C5242EA01618F
:10243000CBF8001024E000BFFEF792FDA0EB0A00ED
:10244000022898D82868C005F6D5FEF783FD4045D8
:10245000E6D8DAE7306820F0F84040F08040DCE76A
:1024600020F080002860FEF77BFD064605E000BFF7
:10247000FEF776FD801B02289DD82868C005F7D49A
:102480002078000729D56C486169643000298046AE
:10249000016811D041F001010160FEF761FD0646BF
:1024A00005E000BFFEF75CFD801B0228C9D8D8F804
:1024B00000008007F6D510E021F001010160FEF771
:1024C0004FFD064605E000BFFEF74AFD801B0228CF
:1024D00072D8D8F800008007F6D42078800623D57B
:1024E000A0690028286810D040F480502860FEF7CA
:1024F00037FD064605E036E1FEF732FD801B022877
:102500005AD828688004F7D50EE020F4805028605F
:10251000FEF726FD064604E0FEF722FD801B02289A
:102520004AD828688004F7D4207840074FD5DFF8D0
:102530000C81D8F8001041F48071C8F80010FEF743
:102540000FFD064605E000BFFEF70AFD801B64286C
:1025500032D8D8F80000C005F6D5374EA0686036EE
:1025600001280AD008B1052813D0306820F00100F6
:102570003060306820F0040002E0306840F0010074
:102580003060A06841F2883A90B1FEF7E9FC8046DD
:102590000AE0306840F004003060EEE7FEF7E0FC4F
:1025A000A0EB0801514507D830688007F6D50EE04A
:1025B000FEF7D6FC804607E084E000BFFEF7D0FCC3
:1025C000A0EB080151457DD830688007F6D4606AD9
:1025D000B0B3DFF86480D9F8001008F120084FF696
:1025E000F87B08F10409C1F3C2010329A8F1040A28
:1025F00069D00228286820F08070286003D0FEF798
:10260000AFFC044684E0FEF7ABFC064605E000BFE5
:10261000FEF7A6FC801B022877D828688001F7D433
:10262000E26A40F2F331386854F8283F884340EAC0
:1026300002101843386004E0104402580048025861
:10264000B5E0217B434622894FF4FE0C208A4FF0EF
:10265000FE474902267D521E401EA1F50071C2F3BD
:1026600008088AB2761E0CEA004042EA08020243D9
:10267000504607EA06610A431A60DAF8002022F0A1
:102680000102CAF80020D9F80020266A22EA0B02CB
:1026900042EAC602C9F80020DAF80010A26921F067
:1026A0000C011143CAF800100168E26921F002012F
:1026B00011430160016841F480310160016841F417
:1026C000003101E021E027E00160016841F4802150
:1026D0000160016841F001010160286840F08070EC
:1026E0002860FEF73DFC044605E000BFFEF738FC1D
:1026F000001B022809D828688001F7D557E000BFE1
:10270000FEF72EFC001B022802D90320BDE8F09F33
:1027100028688001F4D44AE039680128D8F800001C
:1027200021D0A26A01F0030393421CD1E26AC1F3F3
:1027300005118A4217D1216BC0F30802491E8A4253
:1027400011D1616BC0F34622491E91420BD1A16B9E
:10275000C0F30642491E914205D1E16BC0F3066009
:10276000491E814201D00120D0E7A16C4E46D9F824
:102770000000C0F3CC00814219D0DAF800005546C1
:1027800020F00100CAF80000FEF7EAFB4FEA00075C
:10279000FEF7E6FBB842FBD0A26C306820EA0B00E3
:1027A00040EAC2003060286840F001002860002044
:1027B000ACE770477047704710B5040003D094F839
:1027C0003D0010B107E0012010BD002084F83C005E
:1027D000204600F022F8022084F83D002068211DE8
:1027E00000F07EFE012084F8480084F83E0084F862
:1027F0003F0084F8400084F8410084F8420084F8E7
:10280000430084F8440084F8450084F8460084F8C6
:10281000470084F83D00002010BD704790F83D103F
:10282000012901D001207047174A022180F83D108C
:102830000168CB6843F00103CB600068904214D07C
:10284000B0F1804F11D0114988420ED01049884212
:102850000BD01049884208D00F49884205D00F4953
:10286000884202D00E49884207D181680D4A114042
:10287000062906D0B1F5803F03D0016841F001017F
:10288000016000207047000000000140000400408B
:1028900000080040000C0040000401400018004007
:1028A000004001400700010070472DE9F041044657
:1028B00000680027C6680569A90713D5B10711D5B7
:1028C000FA1E026101212177206880698007204675
:1028D00002D0FFF7E9FF04E000F08BF8204600F09B
:1028E00089F82777680716D5700714D52268022063
:1028F0006FF00401116120772068806910F4407F37
:10290000204602D0FFF7D0FF04E000F072F8204626
:1029100000F070F82777280715D5300713D52268FF
:1029200004206FF00801116120772068C0698007DA
:10293000204602D0FFF7B8FF04E000F05AF8204626
:1029400000F058F82777E80616D5F00614D5226867
:1029500008206FF01001116120772068C06910F421
:10296000407F204602D0FFF79FFF04E000F041F8CF
:10297000204600F03FF82777E80708D0F00706D098
:1029800021686FF001000861204600F035F8280644
:1029900001D4A80408D5300606D521686FF402508A
:1029A00008612046FFF706FFE80508D5300606D582
:1029B00021686FF4807008612046FFF7FAFE680610
:1029C00008D5700606D521686FF0400008612046E2
:1029D00000F01CF8A8060AD5B00608D521686FF0EB
:1029E000200008612046BDE8F041FFF7E4BEBDE8E5
:1029F000F08170477047000000680349884201D1A8
:102A0000FEF7B4BA7047000000100040704730B5C0
:102A100090F88410012918D0012280F88420242104
:102A2000C0F888100022202401680B680D6823F08C
:102A3000005325F001050D60426601680B60C0F887
:102A4000884080F88420104630BD022030BD704799
:102A5000704770B5044690F8840001281DD001220B
:102A600084F884202420C4F888002068056802685F
:102A700022F0010202602068826822F060620A434C
:102A80008260204600F094FD22682021002015601D
:102A9000C4F8881084F8840070BD022070BD70B541
:102AA000044690F8840001281DD0012284F8842077
:102AB0002420C4F8880020680568026822F001021A
:102AC00002602068826822F060420A4382602046E9
:102AD00000F06EFD2268202100201560C4F88810E7
:102AE00084F8840070BD022070BD70477047704745
:102AF0002DE9F04107680025044640F60F03022641
:102B0000F8693968BA6818420AD183067ED501F09F
:102B1000200302F0805C53EA0C0377D0616F74E10C
:102B2000CF4BDFF840C3134001EA0C0C53EA0C0C06
:102B30006CD05FEAC07C0CD05FEAC15C09D54FF075
:102B4000010CC7F820C0D4F8907047F00107C4F812
:102B50009070870709D5D70707D027683E62D4F859
:102B6000906046F00406C4F8906046070AD5D60780
:102B700008D0276804263E62D4F8906046F002062A
:102B8000C4F8906006070CD501F020061E4308D05B
:102B9000266808233362D4F8903043F00803C4F861
:102BA000903003050BD54B0109D526684FF400631F
:102BB0003362D4F8903043F02003C4F89030D4F856
:102BC0009030002B3DD0800609D501F0200002F0A6
:102BD0008051084303D0616F09B1204688472168BE
:102BE000D4F890008968490602D410F0280F2AD042
:102BF000204600F0C3FD2068806840061ED520688E
:102C0000083050E8001F21F0400100E021E040E8DA
:102C10000012002AF3D1D4F8800078B192490165FE
:102C2000D4F88000FDF738FF00280AD0D4F88000DF
:102C3000016D00E02046BDE8F04108472046FFF75F
:102C400056FFBDE8F0812046FFF751FFC4F89050D1
:102C5000F7E7D4F86CC02023BCF1010F7ED15FEA06
:102C6000C06C7BD55FEAC16C78D5102038622068D3
:102C70008068400673D5D4F880107C4A086890427A
:102C800034D07A4A1832904230D0784A303290426A
:102C90002CD0764A4832904228D0744A6032904212
:102CA00024D0724A7832904220D0704A90329042BA
:102CB0001CD06E4AA832904218D06D4A904215D06E
:102CC0006B4A1832904211D0694A303290420DD08E
:102CD000674A4832904209D0654A6032904205D036
:102CE000634A7832904201D0614A903240680004D1
:102CF000000CA6D0B4F85C208242A2D9A4F85E00F1
:102D0000C869B0F5807F2FD0216851E8000F20F40A
:102D1000807041E80002002AF6D12068083050E8AF
:102D2000001F21F0010140E80012002AF5D12068BF
:102D3000083050E8001F21F0400140E80012002A4E
:102D4000F5D1C4F88C30E566216851E8000F20F019
:102D5000100041E80002002AF6D101E040E00BE05B
:102D6000D4F88000FDF7E8FC2667B4F85C00B4F8FE
:102D70005E10401A81B22FE0B4F85C00B4F85E1027
:102D8000B4F85E20401A81B2002AB2D00029B0D037
:102D9000226852E8000F20F4907042E80007002FEC
:102DA000F6D1344F206800F1080050E8002F02EA05
:102DB000070240E8002CBCF1000FF3D1C4F88C30BE
:102DC000E5666567206850E8002F22F0100240E8B1
:102DD0000023002BF6D126672046FFF738FE30E7A8
:102DE000C60209D5560207D54FF480103862204636
:102DF000BDE8F041FFF77ABE06060AD501F080066D
:102E000002F40002164304D0A16F00297FF412AF30
:102E100017E7420611D54A060FD52046026852E848
:102E2000001F21F0400142E80014002CF6D1C0F848
:102E30008830856700F0A4F803E7020206D54A004F
:102E400004D52046BDE8F041FFF74FBEC001C6D50E
:102E50000029C4DA2046BDE8F041FFF7F9BD0000C3
:102E60000100001020010004673700081000024034
:102E700010040240FEFFFFEF10B5040003D0D4F8A9
:102E8000880010B107E0012010BD002084F8840004
:102E9000204600F027F82420C4F888002068016844
:102EA00021F001010160A06A10B1204600F0A2FBF0
:102EB000204600F08DFC0128E6D02068416821F40E
:102EC000904141602068816821F02A01816020687A
:102ED000016841F0010101602046BDE8104000F0AA
:102EE000EDBB000010B5B6B00446142130A8FDF7C4
:102EF00067FBC0216846FDF763FB1E4920688842D6
:102F000035D100201F9001210446CDE9001068460C
:102F1000FEF77AFA08B1FDF70CFC1748016841F09A
:102F200010010160006800F0100035901248103860
:102F3000016841F00101016000680DF1C00C02213F
:102F400000F0010035904FF4C06007238CE81300B7
:102F500001220A48CDE9332330A9FDF7DFFE002224
:102F600005212520FEF79EF82520FEF78DF836B0C6
:102F700010BD000000100140F0440258000002584B
:102F80007047FEE70E4A00210E4810B500F0A4FE7F
:102F90000D4C00210A4A243220600C4800F09CFEAF
:102FA000074A002160600A48483200F095FE044A52
:102FB0000021A06007486C3200F08EFEE06010BD7A
:102FC0007054000815330008000000241D33000869
:102FD0002733000831330008F0B587B01421684664
:102FE000FDF7EEFA1D48016841F00101016001683A
:102FF00001F001010591016841F080010160016863
:1030000001F080010591016841F002010160006852
:103010000122134E032100F0020005903046FDF717
:1030200093FF104F012208213846FDF78DFF002441
:103030006946012503200090CDE9015430460394F0
:10304000FDF76CFE08200090CDE901546946384632
:103050000394FDF763FE07B0F0BD0000E0440258A2
:1030600000040258000002581848002110B5164C00
:103070000C224FF4E1330460C0E90131C160C0E9C2
:1030800004128161C161016241628162FFF7F4FE55
:1030900008B1FDF74EFB0D480021FFF700FD08B118
:1030A000FDF747FB09480021FFF7D3FC08B1FDF706
:1030B00040FB0648FFF7ABFC002803D0BDE81040FA
:1030C000FDF737BB10BD000000100140B819002407
:1030D000FEE7FEE72DE9F047454D044689464FF0EF
:1030E000000A2868C04380070AD0414E283E306855
:1030F00020F080603060FDF733FF0746B04608E0FF
:103100000120BDE8F08700BFFDF72AFFC01B0228A1
:1031100067D8D8F800000001F6D4206829684FF479
:10312000FE0721F47C313E0241EA00302860207A1B
:10313000A389B4F804C040022D4D2D495B1E227CAA
:10314000ACF1010C1035091DA0F5007080B2521EC3
:10315000CCF3080C07EA034340EA0C00184306EAE4
:103160000262104328600868626920F0C0001043C2
:1031700008600A68A06922F0200202430A60281D44
:103180000A6822F010020A6002684FF6F873E469D8
:103190009A4342EAC40202600868B9F1000F40F0A5
:1031A00010020A6011D00868B9F1010F11D040F483
:1031B00000100860D8F80000444640F08060C8F86D
:1031C0000000FDF7CDFE05460DE0086840F4002044
:1031D000EFE740F48010ECE7FDF7C2FE401B022849
:1031E00001D903208DE720680001F5D5504688E716
:1031F000284402582DE9F047454D044689464FF0D2
:10320000000A2868C04380070AD0414E283E306833
:1032100020F080503060FDF7A3FE0746B04608E07E
:103220000120BDE8F08700BFFDF79AFEC01B022811
:1032300067D8D8F800008000F6D4208829684FF4B9
:10324000FE0721F07C713E0241EA00502860207A9E
:10325000A389B4F804C040022D4D2D495B1E227C89
:10326000ACF1010C1835091DA0F5007080B2521E9A
:10327000CCF3080C07EA034340EA0C00184306EAC3
:103280000262104328600868626920F440601043BD
:1032900008600A68A06922F4007202430A60281DCF
:1032A0000A6822F480720A6002684FF6F873E469D3
:1032B0009A4342EAC40202600868B9F1000F40F480
:1032C00080720A6011D00868B9F1010F11D040F086
:1032D00080700860D8F80000444640F08050C8F87C
:1032E0000000FDF73DFE05460DE0086840F4800053
:1032F000EFE740F40000ECE7FDF732FE401B022848
:1033000001D903208DE720688000F5D5504688E775
:1033100028440258012000F0A2FCFBE710B5012070
:1033200000F09DFCFBE710B5012000F098FCFBE7E6
:1033300010B5012000F093FCFBE74FF0E02010B542
:10334000006901F0D3FE012803D0BDE8104001F070
:10335000F7BB10BD30B59DB04C216846FDF730F984
:10336000202113A8FDF72CF90220FDF7CDFE2049FE
:10337000002520480A6822F001020A6009680168F5
:1033800041F440410160016801F440411B91016832
:103390008904FCD502200990402401210091C20338
:1033A00001920A900FABCDE90B040C210D900E9009
:1033B00083E8230068461295FEF73AFF08B172B61B
:1033C000FEE708221A94CDE91624D30113AA3F2060
:1033D0000321CDE9184382E82300022113A8FEF758
:1033E000E9FC002801D072B6FEE71DB030BD000038
:1033F0002C040058184802582C48F0B52C4A016893
:1034000041F470010160106800F00F00072804D239
:10341000106820F00F00C01D106026490020254CC8
:1034200010340B68244D43F001030B6020600B68DF
:103430002B400B60136803F00F03072B04D91368AC
:1034400023F00F03DB1D13601A4C1C4A18341C4B6D
:10345000261D371D2060174C1A4D28343060261D5C
:103460003860371D23603B1D35601C1D3A60251DEB
:103470002E1D1860331D22602860326018600A68B3
:103480000C4B114C22F4802260330A6018602068D3
:103490006FF30F00B0F1005F03D20C490120C1F8B7
:1034A000080143F2D2000A490860F0BD88ED00E04F
:1034B00000200052004402587FEDF6EA800201012C
:1034C000000202020000FF010010005C00800051B9
:1034D000004000520148FFF7E8B900004C1A0024F0
:1034E0002DE9F0472A4B4FF0804A2A4D0268984256
:1034F000294E2A4F2A4C09D0504507D0A84205D062
:10350000B04203D0B84201D0A04205D1D1F804C0E6
:1035100022F070024CEA0202DFF888C0DFF88880EF
:103520009842DFF888900FD050450DD0A8420BD0BC
:10353000B04209D0B84207D0A04205D0604503D0C0
:10354000404501D0484503D1CD6822F440722A435A
:103550004D6922F080022A43026098428A68C26262
:103560000A68826207D0A04205D0604503D040457A
:1035700001D0484501D10969016301214161016917
:10358000C90703D0016921F001010161BDE8F0879D
:10359000000001400004004000080040000C004012
:1035A0000004014000400140004401400048014047
:1035B00030B5416EB9B101680D4B03F108048A685A
:1035C0008968C2F34262490F5D5C615C2D01B5FB05
:1035D000F1F1A0F86A10995CA25C0901B1FBF2F16B
:1035E000A0F8681030BD0121A0F86A10F8E70000CB
:1035F0001855000890F82810090706D50168836B54
:103600004A6822F400421A434A6090F82810C90719
:1036100006D00168C36A4A6822F400321A434A603D
:1036200090F82810890706D50168036B4A6822F4D0
:1036300080321A434A6090F82810490706D501687D
:10364000436B4A6822F480221A434A6090F828109B
:10365000C90606D50168C36B8A6822F480521A43F2
:103660008A6090F82810890606D50168036C8A687C
:1036700022F400521A438A6090F82810490611D5A6
:103680000168436C4A6822F480121A434A60416C14
:10369000B1F5801F06D10168836C4A6822F4C0022C
:1036A0001A434A6090F82810090606D50168C26CD2
:1036B000486820F400201043486070472DE9F84323
:1036C00000250446C0F89050FDF74AFC804620686B
:1036D00020266FF07E470068000713D5002243467E
:1036E00031042046009700F049FA58B1216851E8AA
:1036F000000F20F0800041E80002002AF6D1C4F853
:10370000886021E020680068400722D500224346F7
:103710004FF480012046009700F030FAC8B12068CD
:1037200050E8001F21F4907140E80012002AF6D101
:103730002068083050E8001F21F0010140E8001225
:10374000002AF5D1C4F88C60032084F88450BDE8C9
:10375000F883C4F88860C4F88C60E56625670020AB
:1037600084F88450F3E710B5806B0021A0F85E1058
:10377000A0F85610FFF7BBF910BD000010B50268A5
:1037800052E8001F21F4907142E80013002BF6D19B
:103790000E4B0268083252E8001F194042E800143C
:1037A000002CF6D1C16E012908D1026852E8001F31
:1037B00021F0100142E80013002BF6D10021202255
:1037C000C0F88C20C166416710BD0000FEFFFFEF0E
:1037D0002DE9F04304468068D84E87B0D84B216865
:1037E000D4E90427D4F81CC010430A68002547EA2E
:1037F0000C073843324002430A602068E26841689F
:1038000021F44051114341602268A1699A4201D0DC
:10381000206A01439768DFF82CC3CB4ECB4807EAF8
:103820000C070F4397602168676ACA6A22F00F028B
:103830003A43CA622268B2420ED1006800F03800F2
:10384000182873D047DCB8B3082879D010286FD176
:1038500078E028287ED17BE0BD498A4209D1006802
:1038600000F00700062875D2DFE800F0546A6C6E9D
:103870007072B8498A4209D1006800F00700062832
:1038800068D2DFE800F0475D5F616365B2498A4254
:1038900009D1006800F0070006285BD2DFE800F0DD
:1038A0003A5052545658AD498A420BD1006800F044
:1038B000070006284ED200E010E0DFE800F02B41C0
:1038C00043454749A6498A420AD1006800F03800BA
:1038D000182839D0B7DD2028BBD13CE001203AE0E0
:1038E000A0498A4209D1006800F00700062831D2B9
:1038F000DFE800F01026282A2C2E9B498A420BD1A3
:10390000006800F00700062824D2DFE800F0031961
:103910001B1D1F2100201EE09A421BD18B48001D59
:10392000006800F00700062814D202E00CE007E06F
:1039300010E0DFE800F0030507090B0D02200AE0A4
:10394000042008E0082006E0102004E0202002E027
:10395000402000E080208549DFF814829A42854AA1
:103960004FF400434FEA21174FF000064ED11028C4
:103970001AD006DC022809D004280BD008287CD1F4
:103980000DE020283ED0402877D13DE0FDF7E6FB52
:10399000014610E06846FDF7F3FB01990BE003A830
:1039A000FDF790FC049906E01068800605D51068C4
:1039B000C0F3C100C140002970D0606A676838F860
:1039C000102007EB4703B1FBF2F0834255D8B0EB70
:1039D000073F52D8002308461946FCF72DFD024642
:1039E0007808130E120243EA012110183A46714179
:1039F0000023FCF721FD604AA0F5407191423CD8BC
:103A000021688FE03946D8E71946D6E7D4F81CC0BC
:103A10004FF6EF799C4546D1082819D005DC58B1FE
:103A200001280CD0042875D10DE0102815D02028CD
:103A300035D040286ED134E0FEF73AFB01E0FEF7C6
:103A400049FB014610E06846FDF79AFB01990BE03F
:103A500003A8FDF737FC049906E01068800604D53A
:103A60001068C0F3C100C140C1B1636A606838F832
:103A70001330B1FBF3F1490000E04BE001EB5001E2
:103A8000B1FBF0F0A0F11001494543D84FF6F073B7
:103A90002168C0F342021840104343E043E0394636
:103AA000E3E71946E1E7082819D005DC58B10128F9
:103AB0000CD004282ED10DE0102815D020282BD0B2
:103AC000402827D12AE0FEF7F3FA01E0FEF702FBD7
:103AD000014610E06846FDF753FB01990BE003A88F
:103AE000FDF7F0FB049906E01068800604D5106825
:103AF000C0F3C100C140B1B1636A606838F81330E7
:103B0000B1FBF3F101EB5001B1FBF0F0A0F11001BA
:103B1000494505D9012506E03946EDE71946EBE7A9
:103B2000216880B2C8600120A4F86A00A4F8680087
:103B300028466667A66707B0BDE8F083F369FFCF44
:103B4000000C0058FFF4FF110010014054440258CB
:103B50000044004000480040004C0040005000403D
:103B60000014014000780040007C00400090D00329
:103B70000055000800440258FFFC0F002DE9F047F3
:103B8000994617460D460446089E4FF0000833E05C
:103B9000701C31D0FDF7E4F9A0EB0900B04218D851
:103BA000BEB120680168490726D5802D24D0402D5C
:103BB00022D0C169C94309070DD4082505622046F2
:103BC000FFF7DCFDC4F89050012084F88480BDE844
:103BD000F0870320FBE7C069C04300050CD42168CF
:103BE0004FF4006008622046FFF7C8FD2021C4F8AA
:103BF000901084F88480ECE72068C06935EA000002
:103C000004D00020B842C3D00020E0E70120F9E74B
:103C10000148FEF76DBF0000B8190024FEE7090750
:103C200000284FEA116104DB00F1E02080F8001465
:103C3000704700F00F0000F1E02080F8141D70477D
:103C4000FDF79CF9FFF786FBFFF7C6F9FFF70CFAC3
:103C500000F014F8FFF796F900F022F8FEE710B52F
:103C6000EFF3058111B16FF0050404E04FF000049B
:103C700008B100F005FE204610BD0000EFF30580FE
:103C800010B16FF0050070470449086810B14FF09B
:103C9000FF30704701220A60002070477400002442
:103CA00010B5EFF3058010B16FF0050010BD0848A6
:103CB0000168012902D04FF0FF3010BD054A0021F4
:103CC00082F8141D0221016000F042FE002010BDA8
:103CD000740000240BE000E02DE9FF414FEA0103EE
:103CE0004FF00005EFF30581039561BB58B34FF02A
:103CF00080064FF018014FF000044AB3176807B16F
:103D00003C4697691FB139467F1E382F02D217797A
:103D1000FF0703D0002004B0BDE8F081576907B168
:103D2000BE08D2F808C0BCF1000F0DD0D5685C2DDC
:103D300018D312693AB137B18DE8061032462146E0
:103D400001F0A9F903900DE0D7685FB912694AB98B
:103D500003AACDE90012B2B2214601F06FF90128A1
:103D600000D003950398D6E72DE9F041134C0F4698
:103D70000546E6682068001D00F04AFC681C07D173
:103D800037B12168BDE8F0410D48091D00F094BC31
:103D900020683544B5424560216805D2A06B091DF5
:103DA000BDE8F04100F070BC606B091D00F06CFCD8
:103DB000A06A854200D2A562BDE8F08124000024FB
:103DC000881F00242DE9F041054600F081FC2D4CB0
:103DD0002D4FA068401CA060206810B1606930B30E
:103DE0002BE02560A068012827D1002606EB86007D
:103DF00007EB800000F03AFC761C382EF6D32348FF
:103E000000F034FC2148143000F030FC1F4828300A
:103E100000F02CFC1D483C3000F028FC1B485030C2
:103E200000F024FC194860631430A06305E0E86AE0
:103E30002168C96A814200D82560606A401C6062BE
:103E40006864E86A2169884200D9206100EB80003B
:103E5000291D07EB800000F02FFC00F059FC606981
:103E600000280CD02068E96AC06A884207D2084955
:103E70004FF080500860BFF34F8FBFF36F8FBDE8E6
:103E8000F081000024000024D81A0024381F0024E8
:103E900004ED00E038B500F01BFC104C2068C8B9F8
:103EA0000F4800F0E3FB0E48143000F0DFFB0C4934
:103EB0000020E16014312161A1F582730090A1F12D
:103EC000B40210210A2000F051FE206010B105A1BB
:103ED00000F0A0FCBDE8384000F01ABC60000024EF
:103EE0008C200024546D72510000000030B4026C2C
:103EF0000B46002A0BD0D0E902411144C160A14217
:103F000001D30168C160184630BCFCF70CBB30BC63
:103F100070472DE9F041856B1746026C0446002678
:103F200082B1C7B1E068FCF7FEFAE168206C226854
:103F3000091AE160914202D2A168081AE060022FDA
:103F400016D017E02068A8B9A06801F04FF906461E
:103F50000020A0600EE06068FCF7E5FAD4E90101FA
:103F6000226C10446060884204D32068606001E0E5
:103F700005B16D1E6D1CA5633046BDE8F08110B51E
:103F8000044690F8590058B101280CD002280FD0EF
:103F9000502080F31188BFF34F8FBFF36F8FFEE780
:103FA000206B00F0C9FB2046BDE8104000F0C4BB08
:103FB00010BD000011484FF4705110B5420706D0F3
:103FC0000E49C01D20F00700411AC1F570510C4C7C
:103FD000002301440839A4F1180221F00701C4E9C3
:103FE00000030C1A11604B600B60C0E90014946070
:103FF0004FF000415460516110BD00006C27002457
:1040000090000024154E4FF08058154CDFF8549066
:10401000A6F29C4712E000BF00F05AFBF068C568AA
:10402000281D00F0F5FAA068401EA0606068401EE0
:10403000606000F06DFB2846FFF7A1FF6068002874
:10404000EAD13868012805D9C9F80080BFF34F8F3D
:10405000BFF36F8F00F008FBF0E70000741F00242F
:104060002400002404ED00E070B51D46049C51B10D
:10407000C4F80020C4E90F010121204600F0AAFD88
:1040800084F84C5070BD2460F4E72DE9F05F884659
:104090009A4691001546DDE90B940A9EA5228346B7
:1040A000206BFCF785FA206B6FF0030101EB8501B3
:1040B000084420F00707780707D0502080F31188C4
:1040C000BFF34F8FBFF36F8FFEE7B8F1000F4FF0D4
:1040D00000050ED00020221818F8001082F83410C5
:1040E00018F8001011B1401C1028F4D384F8435084
:1040F00001E084F83450382E00D33726E662201DC4
:10410000C4E9136500F0BDFA04F1180000F0B9FA33
:104110006565C6F13800A06184F8585052462461A4
:1041200059463846646200F05BFAB9F1000F20602E
:1041300001D0C9F80040BDE8F09F000030B511493A
:1041400000E011460A688242FBD34B685C18844247
:1041500003D14468084623444B6043681D189542C8
:1041600009D1084C183C2468A24209D052681A446C
:1041700042600A6812680260814200D0086030BD67
:104180000460F9E79000002470B50D4D9142416044
:104190004FF00004006106D88169D21A8A4206D223
:1041A000011D286907E09A4203D2994201D30124F4
:1041B00003E0011DE86800F067FA204670BD0000CA
:1041C0006000002410B5044600F082FAA06B28B10C
:1041D0005FF0000400F09CFA204610BD0124F9E7CE
:1041E00030B53C4D89B06BE00498002806DA059A9A
:1041F000DDE9060190470498002861DB069C6069B0
:1042000010B1201D00F004FA03A800F0D5F8024612
:1042100004980A2854D2DFE800F00505052D304740
:1042200005052D3094F8280040F0010084F828009E
:10423000A06905990B4601442046FFF7A5FF50B33E
:10424000216A2046884794F82800400738D5002086
:10425000009005980023A16942181946204601F0F4
:10426000CDF8C0B9502080F31188BFF34F8FBFF352
:104270006F8FFEE794F828001EE094F8280040F0C5
:10428000010084F828000598A06128B18118134620
:104290002046FFF779FF13E0502080F31188BFF329
:1042A0004F8FBFF36F8FFEE794F82800810703D488
:1042B000204600F041FA03E020F0010084F82800D5
:1042C0002868002204A900F0DFFD00288CD109B085
:1042D00030BD0000600000242DE9FC410F4605467A
:1042E00000F07AFB01A800F067F80446019818B1C5
:1042F00000F0F2FFBDE8FC81254EAFB130690068E7
:10430000D0B300273068291B3A4600F097FA00F036
:10431000E3FF0028EED11F494FF080500860BFF343
:104320004F8FBFF36F8FE5E7A542EBD800F0D4FFC6
:10433000F0682746C068C468201D00F069F994F849
:104340002800410719D5A0692B463A464119204655
:10435000FFF71AFFA8B100202A4603460146009045
:10436000204601F04BF860B9502080F31188BFF36C
:104370004F8FBFF36F8FFEE707E020F0010084F856
:104380002800216A20468847B4E70127BAE70000E1
:104390006000002404ED00E00648416B096829B183
:1043A000416BC968C9684968816270474FF0FF3145
:1043B000FAE700002400002470B5054600F0A4FED2
:1043C000064E0446B068844203D200F009F801208A
:1043D00000E0002028602046B46070BD600000242A
:1043E000F8B5194D20E0C068C4680668201D00F0CB
:1043F0000FF9216A2046884794F82800400713D512
:10440000A0693044B04206D92461211D6060E8688B
:1044100000F03AF908E000203246034601460090D9
:10442000204600F0EBFF38B1E86801680029DAD1D6
:104430002969C5E90310F8BD502080F31188BFF346
:104440004F8FBFF36F8FFEE760000024084840687D
:10445000401C4FF0500080F3118804D0BFF34F8F01
:10446000BFF36F8FFEE7BFF34F8FBFF36F8FFEE792
:1044700098000024074CE068016841B1C068002141
:10448000D0F80000FFF728FFFFF7AAFEF3E70121AD
:104490000020F7E7600000242DE9F041044600F019
:1044A00017F994F9455004F1240609E0606A48B10F
:1044B000304600F0D9FE08B100F010FA6D1E6DB262
:1044C000002DF3DC4FF0FF3684F8456000F020F952
:1044D00000F0FEF894F9445004F1100709E0206957
:1044E00048B1384600F0C0FE08B100F0F7F96D1E83
:1044F0006DB2002DF3DC84F84460BDE8F04100F0BB
:1045000007B900002DE9F0410027044600F064FAE5
:10451000324E306808B9FFF74DFD706904424ED144
:10452000C4B3083460070ED004F00700C0F10800DF
:104530000444600707D0502080F31188BFF34F8FE9
:10454000BFF36F8FFEE72CB37068844237D82348DF
:10455000183001460D6801E028460D466968A14201
:1045600002D229680029F7D131688D4227D0076827
:104570002968016008376868011B10290FD92819BC
:10458000420708D0502080F31188BFF34F8FBFF34C
:104590006F8FFEE713E041606C60FFF7CFFD696845
:1045A0007068401A7060B268904200D2B06000201B
:1045B00072691143C5E90001F068401CF06000F029
:1045C0008BFE780707D0502080F31188BFF34F8F00
:1045D000BFF36F8FFEE73846BDE8F0817800002416
:1045E00070B5041F094E231F4FF0807521F00101A3
:1045F00025601C1F1960A0F120010B1F26604438A4
:104600000A606FF002051D6070BD00004D44000897
:10461000D0E9013201699A60D0E901235A604A6801
:10462000824201D182684A60002202610868401E0D
:10463000086008687047000010B5044C80230460CF
:1046400004F15C000860136010BD0000B420002479
:1046500010B5044C4FF48073046004F15C000860F2
:10466000136010BD10230024704770474FF0FF33D4
:1046700000F108010022C0E901130260C16001617C
:10468000704700210161704730B50B685A1C02D099
:1046900000F1080202E0026904E02246546825683D
:1046A0009D42FAD953684B6099608A6051600861F5
:1046B0000168491C016030BD42684A6093688B60A4
:1046C00093685960916008610168491C01607047F6
:1046D000502080F31188BFF34F8FBFF36F8F0A49CB
:1046E0004868401C486001280CD10848006810F058
:1046F000FF0F07D0502080F31188BFF34F8FBFF317
:104700006F8FFEE7704700009800002404ED00E082
:104710000849486828B1401E486001D180F31188DB
:104720007047502080F31188BFF34F8FBFF36F8F16
:10473000FEE700009800002470B500282AD0164D2E
:10474000A0F1080461686869014207D1502080F334
:104750001188BFF34F8FBFF36F8FFEE722683AB126
:10476000502080F31188BFF34F8FBFF36F8FFEE7A8
:104770008143616000F030F96068696808446860EE
:104780002046FFF7DBFC2869401C2861BDE870402B
:1047900000F0A2BD70BD0000780000244FF0E020C2
:1047A000002101614FF47A7281610723034909688E
:1047B000B1FBF2F1491E4161036170471C00002406
:1047C00010B5FBF715FE114910280ED300F1E020BB
:1047D0000A7890F8F003904207D2502080F31188B5
:1047E000BFF34F8FBFF36F8FFEE7094889680068FA
:1047F00000F4E060884207D9502080F31188BFF3AD
:104800004F8FBFF36F8FFEE710BD000098000024AC
:104810000CED00E0084B5FF0000210B553F8324099
:104820001CB1521C082AF9D310BD03EBC20443F893
:104830003210606010BD0000981A002470B5154653
:104840000E460446FFF744FF94F944100020491C2B
:1048500001D184F8440094F94510491C01D184F831
:104860004500FFF755FFA06B28B904F124002A4644
:10487000314600F051F82046BDE87040FFF70CBE0D
:10488000020010B514D00F48006B38B1502080F3EF
:104890001188BFF34F8FBFF36F8FFEE700F09CF8D6
:1048A00000211046FFF760FA00F016FD002807D13E
:1048B00005494FF080500860BFF34F8FBFF36F8FF3
:1048C00010BD00002400002404ED00E002490A6A43
:1048D0000260C9684160704724000024014901203A
:1048E000C86170472400002410B50C4650B1094936
:1048F00009681831FFF7C8FE2046BDE810400121C5
:10490000FFF732BA502080F31188BFF34F8FBFF307
:104910006F8FFEE72400002470B514460D4668B181
:104920000A4909681831FFF7C7FE0CB14FF0FF358F
:1049300021462846BDE87040FFF716BA502080F3A4
:104940001188BFF34F8FBFF36F8FFEE72400002461
:1049500030B587B0002405AA04A9039403A80494E1
:10496000FFF76AFEDDE9030100940023CDE90110A1
:10497000174815A1059A00F08EFB164D0028E86235
:104980001FD000F00BFD012809D0401C19D1502088
:1049900080F31188BFF34F8FBFF36F8FFEE7502076
:1049A00080F31188BFF34F8FBFF36F8F01214FF05A
:1049B000FF30A8626961EC6007B0BDE8304000F0EC
:1049C00045B807B030BD000049444C450000000028
:1049D00005400008240000240248016B491C0163C3
:1049E0007047000024000024164810B5016B11B177
:1049F0000121C16110BD0021C161134A016901E0BB
:104A0000B9B1491E01EB810352F82330002BF7D0D6
:104A100001EB810302EB830202F1080453685B6837
:104A20005360A34201D15B685360DA6802600161A0
:104A300010BD502080F31188BFF34F8FBFF36F8FED
:104A4000FEE7000024000024D81A002437481CB5D3
:104A5000374902688A4207D1502080F31188BFF39A
:104A60004F8FBFF36F8FFEE731490068491E8842C0
:104A700007D1502080F31188BFF34F8FBFF36F8FA2
:104A8000FEE72C49FF200A780192087008788DF81B
:104A900000009DF800209DF8000002F0F002824224
:104AA00007D0502080F31188BFF34F8FBFF36F8F73
:104AB000FEE79DF8002007201F4C02F050022270F4
:104AC000A06005E09DF8002052008DF80020401EF7
:104AD0009DF800201206F5D40328A06007D05020CE
:104AE00080F31188BFF34F8FBFF36F8FFEE74FF452
:104AF0004070A060019808700C482030016841F4B3
:104B000070010160016841F070410160FFF746FEED
:104B100000206060FBF734FC0848016841F0404128
:104B20000160FBF719FC00201CBD000000ED00E057
:104B300071C20F4100E400E09800002434EF00E06F
:104B4000502010B580F31188BFF34F8FBFF36F8FE4
:104B500000F0E0FA18B104494FF0805008600020DE
:104B600080F3118810BD000004ED00E0F8B5069D4B
:104B700018B153B1CAB181B120E0502080F311883F
:104B8000BFF34F8FBFF36F8FFEE7502080F3118884
:104B9000BFF34F8FBFF36F8FFEE7502080F3118874
:104BA000BFF34F8FBFF36F8FFEE739B1502080F313
:104BB0001188BFF34F8FBFF36F8FFEE750241C4661
:104BC000012683F8466000932B46FFF74DFA2046F6
:104BD000F8BD00002DE9F04704008A4629D0FFF710
:104BE00077FD21680025D4E90F23D4F840C004F1F3
:104BF000100810460E46401E4FF0FF3902FB03120C
:104C000000FB0C10BAF1000FA563666084F84490B5
:104C100084F84590C4E9022013D04046FFF726FDF2
:104C200004F12400FFF722FDFFF772FD0120BDE82B
:104C3000F087502080F31188BFF34F8FBFF36F8F41
:104C4000FEE720690028EFD0404600F00DFB002869
:104C5000EAD004494FF080500860BFF34F8FBFF394
:104C60006F8FE1E704ED00E02DE9FF4704001D46EA
:104C700082B08A464FF0000803D0BAF1000F08D086
:104C800011E0502080F31188BFF34F8FBFF36F8F77
:104C9000FEE7206C38B1502080F31188BFF34F8FAE
:104CA000BFF36F8FFEE7022D0AD1E06B012807D01A
:104CB000502080F31188BFF34F8FBFF36F8FFEE753
:104CC00000F014FA3F4F4FF080564FF0000948B9FA
:104CD000049838B1502080F31188BFF34F8FBFF391
:104CE0006F8FFEE7FFF7F4FCA06BE16B884207D300
:104CF000022D05D00498D0B1B8F1000F1AD01EE0F3
:104D00002A4651462046FFF704F9616A19B104F1B9
:104D1000240000F0A9FA20B13E60BFF34F8FBFF32B
:104D20006F8FFFF7F5FC012006B0BDE8F087FFF7B5
:104D3000EFFC22E06846FFF7C9FD4FF00108FFF7DE
:104D4000E7FCFFF749FEFFF7C3FC94F94400401C61
:104D500001D184F8449094F94500401C01D184F8B5
:104D60004590FFF7D5FC04A9684600F02BF930B157
:104D70002046FFF791FB00F0AFFA0020D4E7FFF7E1
:104D8000A7FCA06BE16B884213D1FFF7C1FC04992B
:104D900004F11000FFF7A8FD2046FFF77DFB00F0AF
:104DA0009BFA00289ED13E60BFF34F8FBFF36F8FF9
:104DB00098E7FFF7ADFC2046FFF76EFB00F08CFA9A
:104DC00090E7000004ED00E02DE9F04704001F46E5
:104DD0009046894603D0B9F1000F08D011E0502069
:104DE00080F31188BFF34F8FBFF36F8FFEE7206C06
:104DF00038B1502080F31188BFF34F8FBFF36F8F0E
:104E0000FEE7022F0AD1E06B012807D0502080F383
:104E10001188BFF34F8FBFF36F8FFEE7FFF7D0FC12
:104E20005020EFF3118680F31188BFF34F8FBFF34B
:104E30006F8FA06BE16B884206D3022F04D0002055
:104E400086F31188BDE8F08794F94550A06B3A4687
:104E500049462046FFF75DF8681C04D06D1C84F8B5
:104E600045500120ECE7606A0028FAD004F12400E4
:104E700000F0FAF90028F4D0B8F1000FF1D00121C8
:104E8000C8F80010EDE700002DE9F74704008A4656
:104E900083B04FF0000603D0BAF1000F08D011E044
:104EA000502080F31188BFF34F8FBFF36F8FFEE761
:104EB000206C38B1502080F31188BFF34F8FBFF3BF
:104EC0006F8FFEE700F012F9DFF8F4804FF08057A3
:104ED0004FF0000948B9059838B1502080F3118887
:104EE000BFF34F8FBFF36F8FFEE7FFF7F1FBA56BAB
:104EF000C5B151462046FEF7F9FF6D1EA563206936
:104F000050B104F1100000F0AFF928B1C8F80070FA
:104F1000BFF34F8FBFF36F8FFFF7FAFB012006B08F
:104F2000BDE8F087059808B11EB106E0FFF7F0FB79
:104F300027E06846FFF7CAFC0126FFF7E9FBFFF709
:104F40004BFDFFF7C5FB94F94400401C01D184F8E8
:104F5000449094F94500401C01D184F84590FFF736
:104F6000D7FB05A9684600F02DF8002820460AD096
:104F7000FFF792FA00F0B0F92046FFF723F9002876
:104F8000B3D00020CBE7FFF71DF990B1059904F1EC
:104F90002400FFF7A9FC2046FFF77EFA00F09CF9F9
:104FA0000028A2D1C8F80070BFF34F8FBFF36F8FF6
:104FB0009BE72046FFF770FA00F08EF995E70000B6
:104FC00004ED00E02DE9F04105000C4612D0CCB113
:104FD000FFF77EFB184E2068F268471C6B68A2EB57
:104FE000030117D02F68366AB74215D0934213D801
:104FF00001251CE0502080F31188BFF34F8FBFF3D1
:105000006F8FFEE7502080F31188BFF34F8FBFF3FF
:105010006F8FFEE700250AE0884205D9401A20601C
:105020002846FFF753FCF5E7002020600125FFF735
:105030006FFB2846BDE8F081240000242DE9FF5FC6
:10504000994616468A4683469000DDE90E87FFF7AB
:1050500059FA05001CD05C20FFF754FA040014D064
:105060000020256384F859004B46CDE90087CDE93F
:105070000240324651465846FFF707F82046FEF7F1
:10508000A1FE012004B0BDE8F09F2846FFF754FBC5
:105090004FF0FF30F6E7F0B585B0DDE90B740A9DFF
:1050A000A7B1DCB15C262763022684F8596000278B
:1050B00003970DF1100C0095CDE901C4FEF7E5FF53
:1050C0002046FEF77FFE049805B0F0BD502080F327
:1050D0001188BFF34F8FBFF36F8FFEE7502080F32F
:1050E0001188BFF34F8FBFF36F8FFEE7054841690B
:1050F00019B1006B18B100207047012070470220E1
:1051000070470000240000240148C0687047000078
:10511000240000242DE9F041324C206B002738B1E7
:10512000A069401CA061FFF7A0FA3846BDE8F081F5
:10513000E668761CE66013D1606B006838B15020D9
:1051400080F31188BFF34F8FBFF36F8FFEE7606B63
:10515000A16B6163A063206A401C2062FFF71CF909
:10516000DFF88480A06A864209D3606B006890B142
:10517000606BC068C568686886420FD2A06220680C
:10518000C06A00EB800158F82100012800D90127EE
:10519000A069F8B120E04FF0FF30EFE7281DFFF7DE
:1051A00037FAA86A18B105F11800FFF731FAE86A72
:1051B0002169884200D9206100EB800108EB810061
:1051C000291DFFF779FA2068E96AC06A8142CCD3C9
:1051D0000127CAE7FFF749FAE0690028A5D00127AF
:1051E000A3E7000024000024D81A002470B5044668
:1051F0004FF0000190B31A4D2868844207D0502028
:1052000080F31188BFF34F8FBFF36F8FFEE7206DE0
:1052100038B1E36C401EE26A20659A421ED040B16C
:105220001CE0502080F31188BFF34F8FBFF36F8FC6
:10523000FEE7201DFFF7ECF9E06CC0F13801A16139
:10524000E0622969884200D9286100EB80000549A5
:1052500001EB8000211DFFF72FFA0121084670BDE8
:1052600024000024D81A002470B5C068C46854B162
:1052700004F118000646FFF7CBF9144D286B50B126
:105280001348314615E0502080F31188BFF34F8F4B
:10529000BFF36F8FFEE7201DFFF7BAF9E06A2969B7
:1052A000884200D9286100EB80000A4901EB8000A8
:1052B000211DFFF701FAE06A2968C96A884203D90B
:1052C0000121E961084670BD002070BD2400002462
:1052D000601F0024D81A00242DE9F0472C4D286BBC
:1052E0000024274638B1FFF7F3F9286B401E2863E6
:1052F000286B40B147E0502080F31188BFF34F8FF7
:10530000BFF36F8FFEE7234E0120A968D9B3A6F53E
:10531000916980463068E0B1F068C46804F1180013
:10532000FFF776F9201DFFF773F9E06A29698842D3
:1053300000D9286100EB800109EB8100211DFFF7F6
:10534000BBF9E06A2968C96A8842E3D3C5F81C80C2
:10535000E0E70CB1FFF720F8AC694CB14FEA080662
:10536000FFF7D8FE00B1EE61641EF9D10020A861FC
:10537000E86940B1084901274FF080500860BFF349
:105380004F8FBFF36F8FFFF7C3F93846BDE8F08743
:1053900024000024601F002404ED00E010B586B056
:1053A000FEF778FD114C2068B8B10020039005AAE3
:1053B000049004A903A8FFF74BF9DDE903210220BB
:1053C00000238DE807000C4809A1059AFFF763FE4A
:1053D000606010B106B0012010BD502080F311882C
:1053E000BFF34F8FBFF36F8FFEE700006000002414
:1053F000546D722053766300754400082DE9FF4117
:105400001E46134602004FF000000A9D16D0144CB1
:105410002768002F0FD006290292CDE9001317DA72
:10542000FFF764FE02284FF000030FD0002220682F
:105430006946FFF719FC04B0BDE8F081502080F305
:105440001188BFF34F8FBFF36F8FFEE72A46EEE759
:105450000023324669463846FFF7B6FCEBE700000A
:10546000600000244FF04070E1EE100A7047000029
:105470005C55000800000000000000000000000073
:105480000000000000020000180000000000000002
:10549000000000003855000800000000A4080024A7
:1054A0005C000000A4000024000800001A000000B6
:1054B000000000000000000044550008000000004B
:1054C000001100245C000000000900240008000016
:1054D0001B00000000000000000000005055000804
:1054E000000000005C1900245C0000005C11002436
:1054F000000800000C000000000000000000000098
:10550000010002000400060008000A000C00100060
:10551000200040008000000101010103070100009C
:105520000804020408010101000000000102030454
:1055300001020304060708096D795461736B303268
:10554000000000006D795461736B3033000000007F
:105550006D795461736B30340000000064656661DE
:10556000756C745461736B0088550008000000244A
:10557000A4000000D40200082C560008A400002457
:105580002C690000F002000800000000000000008C
:1055900000000000000000000100000010000000FA
:1055A000000000000090D0030090D0030000000035
:1055B00000000000000000000000000000000000EB
:1055C00000000000000000000000000000000000DB
:1055D00000000000000000000000000000000000CB
:1055E00000000000000000000000000000000000BB
:1055F00000000000000000000000000000000000AB
:10560000000000000000000000000000000000009A
:10561000000000000000000000000000000000008A
:0C56200000000000AAAAAAAA00000000D6
:040000050800029954
:00000001FF
