:020000040800F2
:10000000C869002471030008F34100080B3400089C
:10001000F1410008A10400080D4E00080000000096
:10002000000000000000000000000000B102000815
:10003000A3040008000000000D0300082B45000881
:100040008B0300088B0300088B0300088B03000858
:100050008B0300088B0300088B0300088B03000848
:100060008B0300088B0300088B0300088B03000838
:100070008B0300088B0300088B0300088B03000828
:100080008B0300088B0300088B0300088B03000818
:100090008B0300088B0300088B0300088B03000808
:1000A0008B0300088B0300088B0300088B030008F8
:1000B0008B0300088B0300088B0300088B030008E8
:1000C0008B0300088B0300088B0300088B030008D8
:1000D0008B030008014E00088B0300088B03000807
:1000E0008B0300088B030008000000008B0300084E
:1000F0008B0300088B0300088B0300088B030008A8
:100100008B0300088B0300088B0300088B03000897
:100110008B0300088B030008C54600088B0300080A
:100120008B0300088B0300088B0300088B03000877
:100130008B0300088B0300088B0300088B03000867
:1001400000000000000000000000000000000000AF
:100150008B0300088B0300088B0300088B03000847
:100160008B0300088B0300088B0300088B03000837
:100170008B0300088B0300088B03000800000000BD
:100180008B0300088B0300088B0300088B03000817
:100190008B0300088B0300088B0300088B03000807
:1001A0008B0300088B0300088B0300088B030008F7
:1001B0008B0300088B0300088B0300081934000828
:1001C0000D3400088B0300088B0300088B03000824
:1001D0008B0300088B0300088B0300088B030008C7
:1001E0008B0300088B0300088B0300088B030008B7
:1001F0008B0300088B0300088B0300088B030008A7
:100200008B0300088B0300088B0300088B03000896
:100210008B0300088B0300088B0300088B03000886
:100220008B0300088B0300088B030008000000000C
:100230008B0300088B030008000000008B030008FC
:100240008B0300088B0300088B0300088B03000856
:100250008B0300088B0300088B0300088B03000846
:100260008B0300088B0300088B0300088B03000836
:100270008B0300088B0300088B03000800000000BC
:100280008B0300088B0300088B03000800000000AC
:10029000000000008B030008DFF810D000F0EEF83B
:1002A00000480047E1520008AFF30080C86900240D
:1002B0002C4B19680868B0E8F04F80F30988BFF349
:1002C0006F8F4FF0000080F311887047000000002E
:1002D00008480068006880F308884FF0000080F349
:1002E000148862B661B6BFF34F8FBFF36F8F00DF24
:1002F00000BF00BF08ED00E0DFF80C00016841F42A
:1003000070010160704700BF88ED00E0EFF30980E5
:10031000BFF36F8F134B1A681EF0100F08BF20ED4C
:10032000108A20E9F04F106009B44FF0500080F3BC
:100330001188BFF34F8FBFF36F8F05F0ABFE4FF007
:10034000000080F3118809BC19680868B0E8F04F14
:100350001EF0100F08BFB0EC108A80F30988BFF3BD
:100360006F8F704724000024EFF305807047000072
:100370000648804706480047FEE7FEE7FEE7FEE73F
:10038000FEE7FEE7FEE7FEE7FEE7FEE7E9450008D9
:10039000990200082DE9F05F0546002092469B4631
:1003A00088460646814640241BE02846414647468B
:1003B000224600F053F853465A46C01A914110D3D2
:1003C00011461846224600F03AF82D1A67EB01084C
:1003D0004F4622460120002100F031F817EB0009BA
:1003E0004E41201EA4F10104DFDC484631462A4676
:1003F0004346BDE8F09F40EA01039B0703D009E0B4
:1004000008C9121F08C0042AFAD203E011F8013B00
:1004100000F8013B521EF9D27047D2B201E000F859
:10042000012B491EFBD270470022F6E710B5134698
:100430000A4604461946FFF7F0FF204610BD202A61
:1004400004DB203A00FA02F1002070479140C2F12B
:10045000200320FA03F3194390407047202A04DB5D
:10046000203A21FA02F00021704721FA02F3D0402D
:10047000C2F120029140084319467047064C074DCF
:1004800006E0E06840F0010394E807009847103464
:10049000AC42F6D3FFF704FF086C0008286C000894
:1004A000FEE7704772B6FEE72DE9F84F044600F00C
:1004B00013FC00903CB194F83500022806D080214E
:1004C00061650020E4E00120BDE8F88FC74DC74E0C
:1004D000C649183520683036DFF81483DFF81493E6
:1004E0008842DFF814A3DFF814B32ED0A8422CD032
:1004F000B0422AD0404528D0484526D0504524D087
:10050000584522D0BD4A183290421ED0BC4A904273
:100510001BD0BB4A1832904217D0B94A30329042B1
:1005200013D0B74A483290420FD0B54A6032904259
:100530000BD0B34A7832904207D0B14A9032904201
:1005400003D0AF4AA832904209D1026822F01E02BD
:1005500002602068426922F08002426103E0026882
:1005600022F00E02026027688F4238464DD0A84222
:100570004BD0B04249D0404547D0484545D0504582
:1005800043D0584541D09D4A183290423DD09C4AB4
:1005900090423AD09A4A1832904236D0984A303235
:1005A000904232D0964A483290422ED0944A6032DD
:1005B00090422AD0924A7832904226D0904A903285
:1005C000904222D08E4AA83290421ED08D4A90424C
:1005D0001BD08C4A1432904217D08A4A283290425B
:1005E00013D0884A3C3290420FD0864A5032904213
:1005F0000BD0844A6432904207D0824A78329042CB
:1006000003D0804A8C32974204D1206E026822F4D3
:100610008072026075492068884228D0A84226D09E
:10062000B04224D0404522D0484520D050451ED06D
:1006300058451CD071491831884218D070498842F9
:1006400015D06F491831884211D06D493031884238
:100650000DD06B494831884209D0694960318842E0
:1006600005D067497831884201D0654990310168E9
:1006700021F0010101600EE000F02EFB0099401A0C
:10068000052808D9202262650321002084F835104E
:1006900084F8340017E73868C007EDD1534A0121C8
:1006A000206890422ED0A8422CD0B0422AD040459B
:1006B00028D0484526D0504524D0584522D04F4B0D
:1006C000183398421ED04E4B98421BD04C4B1833D7
:1006D000984217D04A4B3033984213D0484B483396
:1006E00098420FD0464B603398420BD0444B78333E
:1006F000984207D0424B9033984203D0404BA833E6
:10070000984208D194F85C703F23A06D07F01F0752
:10071000BB40836007E094F85C30A06D03F01F03DA
:1007200001FA03F34360206890424DD0A8424BD0B9
:10073000B04249D0404547D0484545D0504543D0C8
:10074000584541D02D4A183290423DD02C4A904213
:100750003AD02B4A1832904236D0294A3032904251
:1007600032D0274A483290422ED0254A60329042F9
:100770002AD0234A7832904226D0214A90329042A1
:1007800022D01F4AA83290421ED01E4A90421BD04F
:100790001C4A1432904217D01A4A2832904213D081
:1007A000184A3C3290420FD0164A503290420BD039
:1007B000144A6432904207D0124A7832904203D0F1
:1007C000104A8C3290420BD1D4E919024260E06E9B
:1007D00030B1026822F480720260D4E91C024260E7
:1007E000002084F8351084F834006DE610000240D3
:1007F000580002407000024088000240A000024001
:1008000010040240085402582DE9F05F28B190F816
:100810003510022904D0802141650120BDE8F09FF8
:10082000904C904B0168183C18338E4ADFF83C928C
:10083000A1428D4CDFF838E28E4FDFF83CB2DFF892
:100840003CA28F4D8F4E31D091422FD099422DD066
:10085000A1422BD0494529D0714527D0B94225D096
:10086000DFF810C20CF1180C61451FD0DFF808C288
:10087000ACF1600C614519D0DFF8FCC1ACF1480C5B
:10088000614513D0DFF8F0C1ACF1300C61450DD0FB
:10089000DFF8E4C1ACF1180C614507D0594505D02B
:1008A000514503D0A94201D0B1422CD1DFF8B4C1E7
:1008B0004FF0040880F83580ACF1180C61451DD06C
:1008C00091421BD0994219D0A14217D0494515D069
:1008D000714513D0B94211D06648183081420DD00D
:1008E00065486038814209D063484838814205D064
:1008F00061483038814201D05F481838086820F0DC
:1009000001000860ABE0D1F800C02CF00E08DFF861
:1009100054C1C1F80080ACF1180C0168614527D0C2
:10092000914225D0994223D0A14221D049451FD0E0
:1009300071451DD0B9421BD0DFF838C10CF1180C3D
:10094000614515D0DFF830C1ACF1600C61450FD0C6
:10095000DFF824C1ACF1480C614509D0DFF818C1BB
:10096000ACF1300C614503D0DFF80CC1ACF1180CD0
:10097000D1F800C02CF0010CC1F800C0DFF8E48011
:100980004FF0010C0168A8F11808414546D091428A
:1009900044D0994242D0A14240D049453ED0714511
:1009A0003CD0B9423AD0334A1832914236D0324A1A
:1009B000603A914232D0304A483A91422ED02E4A83
:1009C000303A91422AD02C4A183A914226D05945C1
:1009D00024D0514522D0A94220D0B1421ED02A4A6B
:1009E00091421BD0284A1432914217D0264A28320D
:1009F000914213D0244A3C3291420FD0224A5032C5
:100A000091420BD0204A6432914207D01E4A78327C
:100A1000914203D01C4A8C32914218D1016E0A686F
:100A200022F480720A6090F85C20816D02F01F024F
:100A30000CFA02F24A60D0E919124A60C16E31B173
:100A40000A6822F480720A60D0E91C124A6000220F
:100A5000016D80F835C080F8342001B1884700204E
:100A6000DCE600002800024058000240700002400E
:100A700088000240A0000240700402408804024046
:100A8000A0040240B80402400854025890F835000F
:100A9000704700002DE9F84F03247D4D00234FF0EF
:100AA00001094FF0B04B4FF00F0AE9E009FA03F7E4
:100AB0003A4076D00E7906F00306012E01D0022EC0
:100AC00018D1D0F808C04FEA430ECE6804FA0EF8E9
:100AD0002CEA080C06FA0EF646EA0C068660D0F8F8
:100AE00004C00E792CEA070CC6F300169E4046EAB5
:100AF0000C0646600E79F643B6070BD0C6684FEA7F
:100B000043088F6804FA08FC26EA0C0607FA08F77F
:100B10003743C7600E7906F00306022E12D1DE08B5
:100B20000F694FEA437C00EB8606B646366A4FEA09
:100B3000DC6C0AFA0CF807FA0CF726EA08063743C9
:100B4000CEF820700F7906684FEA430807F00307D4
:100B500004FA08FC07FA08F726EA0C063743076090
:100B60004E6816F4403F1CD04A4E376847F00207E3
:100B7000376036689F0706F00206009623F00306EA
:100B800006F1B046B6463F0FD6F80864DFF8088194
:100B90000AFA07FC404526EA0C0603D14FF0000C88
:100BA00041E06CE0DFF8F4C0604502D14FF0010C89
:100BB00039E0DFF8ECC0604502D14FF0020C32E0C2
:100BC000DFF8E0C0604502D14FF0030C2BE0DFF806
:100BD000D8C0604502D14FF0040C24E0DFF8CCC04F
:100BE000604502D14FF0050C1DE0DFF8C4C0604540
:100BF00002D14FF0060C16E0DFF8B8C0604502D114
:100C00004FF0070C0FE0DFF8B0C0604502D14FF0A5
:100C1000080C08E0DFF8A4C0604502D14FF0090CD1
:100C200001E04FF00A0C0CFA07FC4CEA060CCEF877
:100C300008C44F68DBF80060FF0226EA020600D510
:100C400016435F46CBF80060D1F804C0DBF80460BF
:100C50005FEA8C2C26EA020600D516437E606E6899
:100C60004F6826EA0206BF0300D516436E602E6861
:100C70004F6826EA0206FF0300D516432E605B1C70
:100C80000A6832FA03F67FF411AFBDE8F88F00006E
:100C900080000058F4440258000002580004025832
:100CA00000080258000C02580010025800140258A4
:100CB00000180258001C0258002002580024025854
:100CC0000AB1816170470904FBE700000148006830
:100CD000000C70470010005C0148806870470000FD
:100CE0001000002430B590F84120202A24D190F83B
:100CF0004020012A20D0012380F84030242280F8AF
:100D00004120202300240268156825F001051560A4
:100D10000268156825F480551560026815680D4352
:100D2000156001680A6842F001020A6080F84130EB
:100D300080F84040002030BD022030BD30B590F832
:100D40004120202A22D190F84020012A1ED00123E0
:100D500080F84030242280F84120202400250268B9
:100D6000136823F0010313600268136823F47063AF
:100D700043EA0121116001680A6842F001020A6039
:100D800080F8414080F84050002030BD022030BD46
:100D90007047704730B403689A691968D243D40524
:100DA00009D4CC43240606D4456C4FF4807445F036
:100DB00001054564DC6153050AD4CB431B0607D407
:100DC000446C4FF4806344F0080444640468E361B5
:100DD00092050AD4C943090607D4426C4FF4007146
:100DE00042F0020242640268D161416C11F00B0FC3
:100DF00002D030BC02F022BC30BC70470268436BAA
:100E000091691268002B00D018477047704790F81E
:100E10004100704770B5040004D094F841000025EB
:100E200010B106E0012070BD204684F8405000F06B
:100E300031FA242084F841002068016821F0010182
:100E40000160D4E9001020F07060086120688168BA
:100E500021F400418160E06821680128A06830D059
:100E600040F404408860E0680228206841682BD084
:100E700021F40061416020682021154A4368134332
:100E800043602068C26822F40042C26054F8106BCC
:100E90000DCC104340EA0320F06054F81C3CD4E928
:100EA00000021043186054F81C0D026842F0010261
:100EB0000260656484F84110256384F84250002084
:100EC00070BD40F40040CDE741F40061D2E700007E
:100ED000008000022DE9FC47002504461E4692468C
:100EE0000195894690F84100202868D120688069E2
:100EF000C043000463D594F8400001285FD001216D
:100F000084F8401024204FF0200884F841006564E4
:100F1000E06801280BD02B4A2B4900BF49EA0200A8
:100F2000084021684860FFF7D7FE07460AE0274AD5
:100F30002749F3E7701C05D0FFF7CEFEC01BB04277
:100F400019D8C6B1206881698269C1F34010C2F323
:100F500000110843EED02068806933464FF000024C
:100F60004FF02001C0430097C006204616D502F07E
:100F7000D4FFB0B908E084F84180606C84F8405038
:100F800040F0200060640CE02168C1F81C8084F807
:100F90004180002084F84050BDE8FC8702F0BDFF8E
:100FA00008B10120F8E722681021D1612168C1F859
:100FB0001C800198401C01905045A9D3DBE702201A
:100FC000EAE7000000280002FF2B000200200002D8
:100FD000FF230002704700002DE9FF4F83B0044655
:100FE00090F841009A469346DDE91087DDF8489075
:100FF000202874D15FEA080014D09FB194F8400013
:1010000001286CD0012084F84000FFF765FE012222
:10101000064619230090D103204602F07EFF0028E7
:1010200071D103E04FF4007060646CE00025C4F8F7
:101030002480222184F84110402084F84200656415
:101040006785534665635A4604992046CDE9009664
:1010500002F0A0FD10B184F8405054E0618DFF27EC
:1010600034484FF08078FF294FF0007A04D9278563
:101070003A464346009005E0618D53462185009035
:1010800094F828202046049902F01AFF00224B46CB
:1010900004212046009602F040FFA0BB2068616A50
:1010A000406A0870606A401C6062208D401E81B2F8
:1010B0002185608D401E6085608DD8B1D1B9002238
:1010C0004B4680212046009602F027FFD8B9608D5C
:1010D000FF2805D927853A464346009506E026E0D5
:1010E000608D53462085009594F828202046049969
:1010F00002F0E6FE608D0028C8D1324649462046FF
:1011000002F049FF18B1012007B0BDE8F08F216857
:101110002020094AC86121684B6813404B6084F85D
:10112000410084F84250002084F84050ECE702204F
:10113000EAE700000024008000E800FE2DE9FF4FF0
:1011400083B0044690F841009A469346DDE9108743
:10115000DDF84890202871D15FEA080014D09FB1D3
:1011600094F84000012869D0012084F84000FFF77E
:10117000B3FD0122064619230090D103204602F058
:10118000CCFE00286ED103E04FF40070606469E08B
:101190000025C4F82480212184F84110402084F8DF
:1011A000420065646785534665635A460499204644
:1011B000CDE9009602F020FD10B184F8405051E0D6
:1011C000608DFF274FF08078FF284FF0007A04D918
:1011D00027853A464346009505E0608D53462085B5
:1011E000009594F828202046049902F069FE3246C2
:1011F0004946204602F0FBFEA0BB606A21680078E9
:101200008862606A401C6062608D401E6085208D2F
:10121000401E80B22085618DD9B1D0B900224B46E5
:1012200080212046009602F078FED8B9608DFF2814
:1012300005D927853A464346009506E026E0608DAD
:1012400053462085009594F828202046049902F002
:1012500037FE608D0028CAD132464946204602F04A
:101260009AFE18B1012007B0BDE8F08F2068202158
:10127000074AC161206843681340436084F8411005
:1012800084F84250002084F84050ECE70220EAE75E
:1012900000E800FE10B5B6B00446142130A8FFF7F0
:1012A000C3F8C0216846FFF7BFF82249206888428A
:1012B0003DD10020269010210446CDE9001068465B
:1012C00000F08EFA08B1FFF7EDF81B48016841F015
:1012D0000201016000680DF1C00C122100F0020053
:1012E00035904FF4407006238CE813000222134817
:1012F000CDE9332330A9FFF7CDFB0F481430016847
:1013000041F08001016000680022052100F08000AA
:1013100035905F2000F0B2F85F2000F0A1F80022C5
:101320000521602000F0AAF8602000F099F836B09E
:1013300010BD0000001C0058E04402580004025890
:101340007047704702488168027811448160704795
:1013500010000024032010B500F0B0F801F0B8F838
:101360000F4A104914681368C4F3032203F00F03F3
:101370008A5CC95C02F01F0201F01F01D0400A4ADA
:1013800020FA01F11160094908600F2000F010F8FF
:1013900008B1012010BD00F051F8002010BD000080
:1013A00018440258C86B0008200000241C000024C8
:1013B00010B5102804468AB02CD2002201463620EF
:1013C00000F05CF8362000F04BF81748046017482E
:1013D000016841F010010160006809A900F01000E7
:1013E0000890684601F000F80598B0B101F04CF89B
:1013F00040000F4900220F4CB0FBF1F10E4840F2C3
:10140000E7330460C0E90332491EC0E9011201F06C
:10141000BFFB28B101200AB010BD01F035F8E8E7A4
:10142000054801F0E7FBF6E714000024E844025801
:1014300040420F0000100040A41A0024074882B068
:10144000016841F002010160006800220F2100F0F4
:1014500002000090901E02B000F010B8F444025850
:10146000002809DB410900F01F028900012001F179
:10147000E0219040C1F80001704700000E4BF0B42D
:101480001B680D46C3F30223C3F10706042E00D9DF
:101490000426191D072901D2002300E0DB1E0124C8
:1014A00004FA06F19C40491E2940641E99401440EC
:1014B0002143F0BC03F0BCBC0CED00E0064900F099
:1014C000070210B54FF6FF040868044B204040EABD
:1014D00002201843086010BD0CED00E00000FA0582
:1014E000134970B50A68D243520705D5096801F05F
:1014F0000701814213D118E00A6822F00702024373
:101500000A60FFF7E9FB0A4D4FF47A760446083D7E
:1015100007E000BFFFF7E0FB001BB04201D901204C
:1015200070BD2868C0438004F4D4002070BD000062
:101530000C48025810B500F085FF05490968054AB6
:10154000C1F30211515C01F01F01C84010BD000041
:1015500020440258C86B0008494930B5484C0B1D5F
:101560000A68143409681D68246802F00303C5F38F
:101570000012C1F30531C4F3CC04002914FB02F2BC
:1015800000EE102AF8EE400A75D03F4A9FED3D1A52
:10159000B7EE000A6BB1DFED3D1A012B01D0022B33
:1015A00064D002EE101A1168F8EE422A81EEA22AE7
:1015B00021E0334C283C23689B0612D5344B246829
:1015C00001EE901A1168C4F3C104F8EE612AE340F9
:1015D00001EE903AC1F30801F8EE611A81EEA22AF9
:1015E0000BE001EE901ADFED2B2A00BFF8EE611A36
:1015F000116882EEA12AC1F3080101EE901A116868
:10160000F8EE611A40EE811A71EE800A62EE200A4D
:10161000C1F3462101EE101AB8EE411A31EE001A5C
:10162000C0EE811ABCEEE11A80ED001A1168C1F318
:10163000064101EE101AB8EE411A31EE001AC0EE62
:10164000811ABCEEE11A80ED011A1168C1F306613E
:1016500001EE101AB8EE411A31EE000A80EE801A3F
:10166000BCEEC10A80ED020A30BD04E001EE901A22
:10167000DFED092ABAE70021016041608160F3E7EC
:101680002844025800000039384402580024744AA3
:101690000090D0030024744C20BCBE4B494930B5A7
:1016A000484C0B1D0A681C3409681D68246802F048
:1016B0000303C5F30022C1F30551C4F3CC04002990
:1016C00014FB02F200EE102AF8EE400A75D03F4AF1
:1016D0009FED3D1AB7EE000A6BB1DFED3D1A012B0D
:1016E00001D0022B64D002EE101A1168F8EE422AE3
:1016F00081EEA22A21E0334C283C23689B0612D5B8
:10170000344B246801EE901A1168C4F3C104F8EE5A
:10171000612AE34001EE903AC1F30801F8EE611A44
:1017200081EEA22A0BE001EE901ADFED2B2A00BF1A
:10173000F8EE611A116882EEA12AC1F3080101EEE8
:10174000901A1168F8EE611A40EE811A71EE800A63
:1017500062EE200AC1F3462101EE101AB8EE411ADA
:1017600031EE001AC0EE811ABCEEE11A80ED001ACB
:101770001168C1F3064101EE101AB8EE411A31EEBC
:10178000001AC0EE811ABCEEE11A80ED011A116850
:10179000C1F3066101EE101AB8EE411A31EE000AEB
:1017A00080EE801ABCEEC10A80ED020A30BD04E072
:1017B00001EE901ADFED092ABAE7002101604160CD
:1017C0008160F3E728440258000000394044025881
:1017D0000024744A0090D0030024744C20BCBE4BFB
:1017E0002DE9FE4F0546DFF8E48350F8081B00247E
:1017F000F64FC943019005F12800264608F1240858
:10180000009008011DD4A86E50B1B0F5801F0CD017
:10181000B0F5001F0ED0B0F5401F1ED001240FE020
:10182000386840F40030386017E00198022102F077
:1018300049FD03E00098022102F0D4FD04000CD021
:1018400026462888C043C00523D4A86D05281ED28B
:10185000DFE800F00C11161B1B00AA6ED8F8001070
:1018600021F440111143C8F80010EAE7386840F449
:101870000030386009E00198002102F023FD03E008
:101880000098002102F0AEFD044674B100E001248E
:1018900026462888C043800528D4E86D80281ED0BD
:1018A0000CDC90B140280ED114E0AA6DD8F80010DD
:1018B00021F007011143C8F80010EAE7C02813D04F
:1018C000B0F5807F10D001240FE0386840F400307C
:1018D000386009E00198002102F0F4FC03E0009870
:1018E000002102F07FFD04469CB126462888DFF8DF
:1018F000DC92C04309F12C0940052CD4D5F8A8008E
:10190000B0F5800F20D00DDCA0B1B0F5001F0FD1D5
:1019100015E0EA6DD8F8001021F4E0711143C8F821
:101920000010E3E7B0F5C00F13D0B0F5000F10D0F2
:1019300001240FE0386840F40030386009E0019875
:10194000002102F0BFFC03E00098002102F04AFDF4
:1019500004467CB126462888C04300052DD4D5F81E
:10196000AC00B0F1007F21D00EDCA8B1B0F1807FD7
:1019700010D116E0D5F8A820D9F8001021F46001A4
:101980001143C9F80010E6E7B0F1407F13D0B0F181
:10199000806F10D001240FE0386840F400303860C8
:1019A00009E00198002102F08DFC03E0009800217D
:1019B00002F018FD044674B126462868C043800131
:1019C0001FD4E86CD8B110280FD0202812D03028AE
:1019D00015D0012414E0D5F8AC20D9F8001021F07E
:1019E000E0611143C9F80010E7E7386840F40030BF
:1019F000386004E00198022102F064FC044674B1EE
:101A000026462888C043C0042BD4286EB0F5005F5A
:101A100020D00DDCA0B1B0F5805F0FD115E06B4890
:101A2000EA6C2030016821F0300111430160E8E7E1
:101A3000B0F5405F13D0B0F5804F10D001240FE017
:101A4000386840F40030386009E00198002102F065
:101A500039FC03E00098002102F0C4FC04468CB17C
:101A600026462888C043800429D4686EB0F5403FDC
:101A700023D010DC08B3B0F5803F14D0B0F5003FA0
:101A80000FD115E02A6ED8F8001021F4E04111437F
:101A9000C8F80010E5E7B0F5802F0ED0B0F5A02F04
:101AA0000BD001240AE00198012102F00BFC03E0B5
:101AB0000098012102F096FC044694B1264628883D
:101AC000C04340042AD4D5F8B000B0F1405F23D021
:101AD00010DC08B3B0F1805F14D0B0F1005F0FD11B
:101AE00015E06A6ED8F8001021F4E0211143C8F81F
:101AF0000010E4E7B0F1804F0ED0B0F1A04F0BD052
:101B000001240AE00198012102F0DCFB03E00098C7
:101B1000012102F067FC044674B126462888C043C0
:101B200000041FD4286FD8B1B0F1805F0ED0B0F19F
:101B3000005F10D0012414E0D5F8B020D9F80010CF
:101B400021F0E0411143C9F80010E7E7386840F49C
:101B50000030386004E00198012102F0B3FB044634
:101B600074B126462868C043C0011ED4A86CD0B109
:101B700001280ED0022811D0032814D0012413E02C
:101B80002A6FD8F8001021F040511143C8F8001016
:101B9000E8E7386840F40030386004E0019802213A
:101BA00002F090FB0446ACB126462868DFF81CB072
:101BB000C043ABF11C0B400252D40548016841F40C
:101BC00080710160FFF788F8824611E02C440258CA
:101BD00000480258FA48AA6C016821F00301114339
:101BE0000160E2E7FFF778F8A0EB0A00642835D837
:101BF000F4480068C005F5D58CBBDFF8C4A3B5F880
:101C0000B4100AF1240ADAF8000001F4407100F47B
:101C10004070884211D0DAF80010DAF8002021F480
:101C2000407142F48032CAF80020DAF8002022F431
:101C30008032CAF80020CAF80010D5F8B400B0F518
:101C4000807F1AD1FFF748F8029012E0FFF744F8BE
:101C50000299411A41F2883081420AD9032426466A
:101C60002878DFF85CA3C0430AF1080AC00721D036
:101C70003CE0DAF800008007E8D5D5F8B410C1F3ED
:101C80000120032858460DD0016821F47C510160E1
:101C9000B5F8B420DAF80010C2F30B021143CAF809
:101CA0000010DDE7C84A036802EA111223F47C51F0
:101CB0001143ECE7E86F182816D005DCA0B108281E
:101CC00008D0102804D10AE020280DD028280BD0F5
:101CD00001240AE00198012102F0F4FA03E00098DF
:101CE000012102F07FFB044664B126462878C043F8
:101CF00080071ED4A86F062819D2DFE800F0160C62
:101D000011161616EA6FDAF8001021F038011143A7
:101D1000CAF80010EAE70198012102F0D3FA03E0C3
:101D20000098012102F05EFB04467CB100E0012432
:101D300026462878C04340071FD4D5F894000628CB
:101D400019D2DFE800F0160C11161616AA6FDAF891
:101D5000001021F007011143CAF80010E9E70198CB
:101D6000012102F0AFFA03E00098012102F03AFBF2
:101D70000446A4B100E0012426462878C04380062A
:101D80002BD4D5F89000B0F1405F24D011DC10B313
:101D9000B0F1805F15D0B0F1005F10D116E0D5F83A
:101DA0009420D9F8001021F007011143C9F8001060
:101DB000E3E7B0F1804F0ED0B0F1A04F0BD001247B
:101DC0000AE00198002102F07DFA03E00098022168
:101DD00002F008FB044694B126462878C04340062A
:101DE0002BD4D5F89C00B0F5406F24D011DC10B393
:101DF000B0F5806F15D0B0F5006F10D116E0D5F8B2
:101E00009020DAF8001021F0E0411143CAF80010E8
:101E1000E3E7B0F5805F0ED0B0F5A05F0BD00124F2
:101E20000AE00198002102F04DFA03E00098022137
:101E300002F0D8FA044694B126462878C04300063A
:101E40002BD4D5F8A000B0F5C04F24D011DC10B3CE
:101E5000B0F5005F15D0B0F5804F10D116E0D5F881
:101E60009C20D9F8001021F4E0511143C9F800106A
:101E7000E3E7B0F5004F0ED0B0F5204F0BD00124B2
:101E80000AE00198002102F01DFA03E00098022107
:101E900002F0A8FA044654B126462878C043000749
:101EA0001ED4D5F88400B0F5805F0AD00FE0D5F8D5
:101EB000A020D9F8001021F460411143C9F80010A6
:101EC000EBE70098022102F08DFA00B10126D5F867
:101ED0008420DAF8001021F440511143CAF80010B0
:101EE0002878C043C00613D4D5F89800B0F5807F99
:101EF00005D10098022102F075FA00B10126D5F84B
:101F00009820D9F8001021F440711143C9F800104D
:101F10002868C043000316D4D5F8A40038B1B0F542
:101F2000803F09D0B0F5003F0BD001240AE00198B2
:101F3000002102F0C7F903E00098022102F052FAF2
:101F400004468CB126462868C043400322D4D5F805
:101F50008800B0F5801F11D0B0F5001F13D0B0F588
:101F6000401F15D0012414E0D5F8A420D9F80010A2
:101F700021F440311143C9F80010E4E7386840F417
:101F80000030386004E00098012102F02BFA04468A
:101F90005CB126462868C043C00323D4286DA8B18D
:101FA000B0F5803F17D001241BE0D5F88820DAF87F
:101FB000001021F440111143CAF80010EAE70000B4
:101FC0004C44025800480258CFFFFF00386840F4E4
:101FD0000030386004E00198022102F073F90446F1
:101FE000E4B126462868C043800005D40098022149
:101FF00002F0F8F900B101262868C04380031BD421
:10200000D5F88000B0B1B0F5807F0FD0B0F5007F7B
:1020100010D0B0F5407F0DD001240CE05A482A6D55
:10202000016821F4803111430160DBE7386840F436
:1020300000303860ECB326462868C043C00207D49D
:102040006A6FD8F8001021F000411143C8F8001061
:102050002868C043C00008D4D5F8B820DBF80010C9
:1020600021F480411143CBF800102868C04380025E
:1020700007D4EA6ED8F8001021F080711143C8F837
:1020800000102868C04340000CD4DBF8001021F495
:102090000041CBF80010DBF80010D5F8BC2011434C
:1020A000CBF800102868C04308D437486A6D01682F
:1020B00000E018E021F04051114301602868C0435E
:1020C000000208D4D5F88C20DAF8001021F4400181
:1020D0001143CAF8001028790024C04300F0010021
:1020E00020430AD00FE0D5F88020DAF8001021F460
:1020F00040711143CAF800109EE70198002102F0D8
:10210000E1F800B106462879C04300F00200204300
:1021100005D10198012102F0D5F800B106462879D1
:10212000C04300F00400204305D10198022102F0D1
:10213000C9F800B106462879C04300F008002043E2
:1021400005D10098002102F04DF900B1064628792A
:10215000C04300F01000204305D10098012102F097
:1021600041F900B106462879C04300F0200004433D
:1021700004D10098022102F035F900B916B101200E
:10218000BDE8FE8F0020FBE74C4402582DE9F05FCC
:1021900004000F467ED0DFF83882D8F8000000F047
:1021A0000F00B8420CD2D8F8001021F00F013943CB
:1021B000C8F80010D8F8000000F00F00B84269D14C
:1021C0002078844D40070AD52069296801F0700104
:1021D000884204D9296821F07001014329602078E0
:1021E0007C4E361D00070AD56069316801F0700128
:1021F000884204D9316821F07001014331602078B0
:10220000C0060AD5A069316801F4E061884204D9AA
:10221000316821F4E061014331602078DFF8B4B126
:1022200080060BF1080B0CD5E1695846DBF800205D
:1022300002F07002914204D9026822F070020A434F
:102240000260207880070AD5E068296801F00F0154
:10225000884204D9296821F00F01014329602078C0
:10226000C0073ED05B49A2682868183920F4706026
:10227000104328606068022818D0032819D0096824
:10228000012819D0490700294ADADFF848A1AAF144
:10229000080A00E044E0DAF8002022F007020243D6
:1022A000CAF80020FEF718FD814612E0096889038C
:1022B000E9E709688901E6E7C905E4E7FEF70CFDEF
:1022C000A0EB090141F28830814202D90320BDE828
:1022D000F09F6168DAF8000000F03800B0EBC10F41
:1022E000ECD1207880070AD5E068296801F00F0159
:1022F000884204D2296821F00F0101432960D8F8EF
:102300000010404601F00F01B9420BD9016821F0DD
:102310000F0139430160006800F00F00B84201D09E
:102320000120D4E7207840070AD52069296801F008
:102330007001884204D2296821F0700101432960AC
:10234000207800070AD56069316801F07001884281
:1023500004D2316821F07001014331602078C00659
:102360000AD5A069316801F4E061884204D231687D
:1023700021F4E06101433160207880060CD5E169E9
:102380005846DBF8002002F07002914204D2026845
:1023900022F070020A43026000F09AF80E492A689F
:1023A0002B68C2F3032203F00F038A5CC95C02F0BE
:1023B0001F0201F01F01D040084A20FA01F111600C
:1023C0000749086007480068BDE8F05FFEF7F0BF06
:1023D0000020005218440258C86B00082000002456
:1023E0001C0000241400002470B5144C3F2202602D
:1023F000124A24680832131D114D04F0070444608A
:1024000016681C1D06F470668660166806F00F06D6
:10241000C660126802F0700202611A6802F070026F
:1024200042611A6802F4E0628261226802F070027E
:10243000C261286800F00F00086070BD10440258A7
:102440000020005230B500F043F80B4A0B490C4B0A
:1024500015681468C5F3032204F00F048A5C095D53
:1024600002F01F0201F01F01D040064A20FA01F1DC
:1024700019601060084630BD18440258C86B000847
:10248000200000241C00002400B5FFF7DBFF0549F5
:102490000968054AC1F30211515C01F01F01C840EF
:1024A00000BD00001C440258C86B000800B5FFF7CF
:1024B000C9FF05490968054AC1F30221515C01F0D1
:1024C0001F01C84000BD00001C440258C86B000832
:1024D000454970B545480968434B103B11F0380237
:1024E00008D00111082A03D0102A0BD0182A0BD0CB
:1024F000084670BD19688906FBD51968C1F3C1018A
:10250000C84070BD3A4870BD3749374D18310C1D71
:1025100024350A68096826682D6802F0030406F06D
:102520000102C1F30511C5F3CC0515FB02F200EE63
:10253000102AB8EE400AE9B32F4ADFED2E0AB7EEB3
:10254000001A6CB1DFED2D1A012C01D0022C43D002
:1025500002EE101A1068F8EE422A81EEA22A1EE05E
:102560001C68A40611D51B6801EE901A1168C3F30C
:10257000C103F8EE612AD84001EE900AC1F30800C9
:10258000F8EE611A81EEA22A0BE001EE901ADFED5F
:102590001C2A00BFF8EE611A106882EEA12AC0F36F
:1025A000080001EE900AF8EE611A40EE201A31EEB2
:1025B000810A00E015E022EE000A1068C0F3462010
:1025C000401C00EE900AF8EE600A80EE201ABCEE85
:1025D000C10A10EE100A70BD01EE901ADFED092A53
:1025E000D8E7002070BD0000104402580090D003CE
:1025F00040787D0100000039304402580024744ABC
:102600000024744C20BCBE4B2DE9F05F04007DD04B
:10261000FF4F2078FE4D1837DFF8F493103DC007C8
:1026200048D0D9F80000396800F03800102815D0DB
:10263000182803D101F0030002280FD06068B0F51C
:10264000803F12D010B1B0F5A02F18D0286820F428
:1026500080302860286820F4802009E02868800302
:1026600028D560680028D2D024E0286840F4803063
:102670002860606888B1FEF72FFB064609E02868ED
:1026800040F480202860F0E7FEF726FB801B6428DA
:102690006FD828688003F7D50CE0FEF71DFB0646CF
:1026A00005E000BFFEF718FB801B6428F0D82868FF
:1026B0008003F7D4207841F20308D54E0C3E800702
:1026C00069D5D9F80000396810F038000ED0182804
:1026D00001D188070AD0E06890B3296821F0190178
:1026E00001432960FEF7F8FA824631E02868400786
:1026F00002D5E06800288AD0E168286820F0190037
:1027000008432860FEF7E8FA824607E0DFE000BFF2
:10271000FEF7E2FAA0EB0A000228B9D828684007C1
:10272000F6D500BFFEF7D2FA40451BD820694028F5
:1027300012D0316821F47C3141EA003030602AE067
:1027400018E000BFFEF7C8FAA0EB0A0002289FD8E5
:1027500028684007F6D5E5E7306820F47C3040F47F
:102760000030EBE7207C316821F0FE4141EA006057
:10277000E4E70DE1286820F001002860FEF7ACFADC
:10278000824605E0FEF7A8FAA0EB0A0002288DD8E1
:1027900028684007F6D42078C0065DD5D9F8000037
:1027A000DFF86CB2396800F03800ABF1040B082890
:1027B00010D0182803D101F0030001280AD0E069E5
:1027C0000028286838D040F080002860FEF784FA9E
:1027D000824623E02868C00523D5E069802876D1A9
:1027E0001FE0206A202821D0316821F0F84141EA19
:1027F0008060306030E000BF94F82010DBF80020EB
:1028000022F07C5242EA0161CBF8001024E000BFC4
:10281000FEF762FAA0EB0A00022898D82868C005E3
:10282000F6D5FEF753FA4045E6D8DAE7306820F0EF
:10283000F84040F08040DCE720F080002860FEF7A0
:102840004BFA064605E000BFFEF746FA801B022859
:102850009DD82868C005F7D42078000729D56C4892
:102860006169643000298046016811D041F001019E
:102870000160FEF731FA064605E000BFFEF72CFACC
:10288000801B0228C9D8D8F800008007F6D510E0D0
:1028900021F001010160FEF71FFA064605E000BFC6
:1028A000FEF71AFA801B022872D8D8F800008007B9
:1028B000F6D42078800623D5A0690028286810D097
:1028C00040F480502860FEF707FA064605E036E13E
:1028D000FEF702FA801B02285AD828688004F7D530
:1028E0000EE020F480502860FEF7F6F9064604E07A
:1028F000FEF7F2F9801B02284AD828688004F7D432
:10290000207840074FD5DFF80C81D8F8001041F44B
:102910008071C8F80010FEF7DFF9064605E000BF39
:10292000FEF7DAF9801B642832D8D8F80000C00519
:10293000F6D5374EA068603601280AD008B10528C0
:1029400013D0306820F001003060306820F00400BF
:1029500002E0306840F001003060A06841F2883A3F
:1029600090B1FEF7B9F980460AE0306840F0040003
:102970003060EEE7FEF7B0F9A0EB0801514507D84B
:1029800030688007F6D50EE0FEF7A6F9804607E02E
:1029900084E000BFFEF7A0F9A0EB080151457DD807
:1029A00030688007F6D4606AB0B3DFF86480D9F885
:1029B000001008F120084FF6F87B08F10409C1F374
:1029C000C2010329A8F1040A69D00228286820F06E
:1029D0008070286003D0FEF77FF9044684E0FEF79C
:1029E0007BF9064605E000BFFEF776F9801B02285A
:1029F00077D828688001F7D4E26A40F2F33138686A
:102A000054F8283F884340EA02101843386004E035
:102A10001044025800480258B5E0217B4346228901
:102A20004FF4FE0C208A4FF0FE474902267D521ECD
:102A3000401EA1F50071C2F308088AB2761E0CEAA6
:102A4000004042EA08020243504607EA06610A4390
:102A50001A60DAF8002022F00102CAF80020D9F842
:102A60000020266A22EA0B0242EAC602C9F80020C8
:102A7000DAF80010A26921F00C011143CAF8001025
:102A80000168E26921F0020111430160016841F42B
:102A900080310160016841F4003101E021E027E06C
:102AA0000160016841F480210160016841F0010189
:102AB0000160286840F080702860FEF70DF9044638
:102AC00005E000BFFEF708F9001B022809D82868B6
:102AD0008001F7D557E000BFFEF7FEF8001B022883
:102AE00002D90320BDE8F09F28688001F4D44AE0B1
:102AF00039680128D8F8000021D0A26A01F0030348
:102B000093421CD1E26AC1F305118A4217D1216BAD
:102B1000C0F30802491E8A4211D1616BC0F34622FC
:102B2000491E91420BD1A16BC0F30642491E91424E
:102B300005D1E16BC0F30660491E814201D001203E
:102B4000D0E7A16C4E46D9F80000C0F3CC0081421A
:102B500019D0DAF80000554620F00100CAF800004C
:102B6000FEF7BAF84FEA0007FEF7B6F8B842FBD016
:102B7000A26C306820EA0B0040EAC200306028688E
:102B800040F0010028600020ACE7704770477047B4
:102B900010B5040003D094F83D0010B107E0012007
:102BA00010BD002084F83C00204600F022F80220EE
:102BB00084F83D002068211D01F08AFD012084F881
:102BC000480084F83E0084F83F0084F8400084F810
:102BD000410084F8420084F8430084F8440084F8FB
:102BE000450084F8460084F8470084F83D00002042
:102BF00010BD704790F83D10012901D001207047A9
:102C0000174A022180F83D100168CB6843F00103A8
:102C1000CB600068904214D0B0F1804F11D01149C0
:102C200088420ED0104988420BD01049884208D003
:102C30000F49884205D00F49884202D00E49884288
:102C400007D181680D4A1140062906D0B1F5803FB1
:102C500003D0016841F001010160002070470000CD
:102C6000000001400004004000080040000C00404B
:102C7000000401400018004000400140070001002E
:102C800070472DE9F041044600680027C6680569D1
:102C9000A90713D5B10711D5FA1E026101212177C9
:102CA000206880698007204602D0FFF7E9FF04E032
:102CB00000F08BF8204600F089F82777680716D5D2
:102CC000700714D5226802206FF00401116120778B
:102CD0002068806910F4407F204602D0FFF7D0FFC3
:102CE00004E000F072F8204600F070F8277728071B
:102CF00015D5300713D5226804206FF00801116143
:102D000020772068C0698007204602D0FFF7B8FF0F
:102D100004E000F05AF8204600F058F82777E8065B
:102D200016D5F00614D5226808206FF01001116145
:102D300020772068C06910F4407F204602D0FFF75A
:102D40009FFF04E000F041F8204600F03FF82777AD
:102D5000E80708D0F00706D021686FF0010008618D
:102D6000204600F035F8280601D4A80408D530061E
:102D700006D521686FF4025008612046FFF706FF70
:102D8000E80508D5300606D521686FF48070086123
:102D90002046FFF7FAFE680608D5700606D52168BA
:102DA0006FF040000861204600F01CF8A8060AD524
:102DB000B00608D521686FF0200008612046BDE804
:102DC000F041FFF7E4BEBDE8F081704770470000B6
:102DD00000680349884201D1FEF7B4BA7047000089
:102DE00000100040704730B590F88410012918D0C9
:102DF000012280F884202421C0F888100022202499
:102E000001680B680D6823F0005325F001050D6083
:102E1000426601680B60C0F8884080F88420104644
:102E200030BD022030BD7047704770B5044690F841
:102E3000840001281DD0012284F884202420C4F8B5
:102E4000880020680568026822F00102026020689C
:102E5000826822F060620A438260204601F0A0FC92
:102E60002268202100201560C4F8881084F88400AE
:102E700070BD022070BD70B5044690F88400012832
:102E80001DD0012284F884202420C4F88800206802
:102E90000568026822F0010202602068826822F060
:102EA00060420A438260204601F07AFC22682021B9
:102EB00000201560C4F8881084F8840070BD0220DA
:102EC00070BD7047704770472DE9F04107680025D5
:102ED000044640F60F030226F8693968BA681842BA
:102EE0000AD183067ED501F0200302F0805C53EA0C
:102EF0000C0377D0616F74E1CF4BDFF840C3134010
:102F000001EA0C0C53EA0C0C6CD05FEAC07C0CD0CC
:102F10005FEAC15C09D54FF0010CC7F820C0D4F8B6
:102F2000907047F00107C4F89070870709D5D7075C
:102F300007D027683E62D4F8906046F00406C4F8D3
:102F4000906046070AD5D60708D0276804263E6257
:102F5000D4F8906046F00206C4F8906006070CD5DD
:102F600001F020061E4308D0266808233362D4F8F7
:102F7000903043F00803C4F8903003050BD54B01A3
:102F800009D526684FF400633362D4F8903043F0DB
:102F90002003C4F89030D4F89030002B3DD0800648
:102FA00009D501F0200002F08051084303D0616F81
:102FB00009B1204688472168D4F8900089684906FD
:102FC00002D410F0280F2AD0204601F0CFFC206850
:102FD000806840061ED52068083050E8001F21F0A8
:102FE000400100E021E040E80012002AF3D1D4F8CB
:102FF000800078B192490165D4F88000FDF704FCA7
:1030000000280AD0D4F88000016D00E02046BDE819
:10301000F04108472046FFF756FFBDE8F081204603
:10302000FFF751FFC4F89050F7E7D4F86CC02023A5
:10303000BCF1010F7ED15FEAC06C7BD55FEAC16C49
:1030400078D51020386220688068400673D5D4F89F
:1030500080107C4A0868904234D07A4A18329042F4
:1030600030D0784A303290422CD0764A4832904262
:1030700028D0744A6032904224D0724A783290420A
:1030800020D0704A903290421CD06E4AA8329042B2
:1030900018D06D4A904215D06B4A1832904211D028
:1030A000694A303290420DD0674A4832904209D086
:1030B000654A6032904205D0634A7832904201D02E
:1030C000614A903240680004000CA6D0B4F85C203D
:1030D0008242A2D9A4F85E00C869B0F5807F2FD0E3
:1030E000216851E8000F20F4807041E80002002AB6
:1030F000F6D12068083050E8001F21F0010140E8B7
:103100000012002AF5D12068083050E8001F21F095
:10311000400140E80012002AF5D1C4F88C30E56681
:10312000216851E8000F20F0100041E80002002A59
:10313000F6D101E040E00BE0D4F88000FDF7B4F9EF
:103140002667B4F85C00B4F85E10401A81B22FE034
:10315000B4F85C00B4F85E10B4F85E20401A81B296
:10316000002AB2D00029B0D0226852E8000F20F423
:10317000907042E80007002FF6D1344F206800F12C
:10318000080050E8002F02EA070240E8002CBCF1DA
:10319000000FF3D1C4F88C30E5666567206850E80D
:1031A000002F22F0100240E80023002BF6D1266702
:1031B0002046FFF738FE30E7C60209D5560207D58C
:1031C0004FF4801038622046BDE8F041FFF77ABE28
:1031D00006060AD501F0800602F40002164304D068
:1031E000A16F00297FF412AF17E7420611D54A06F6
:1031F0000FD52046026852E8001F21F0400142E846
:103200000014002CF6D1C0F88830856700F0FCF877
:1032100003E7020206D54A0004D52046BDE8F04186
:10322000FFF74FBEC001C6D50029C4DA2046BDE86D
:10323000F041FFF7F9BD000001000010200100047B
:10324000574900081000024010040240FEFFFFEF43
:1032500010B5040003D0D4F8880010B107E00120B5
:1032600010BD002084F88400204600F027F82420B8
:10327000C4F888002068016821F001010160A06A9B
:1032800010B1204601F0AEFA204601F099FB01286A
:10329000E6D02068416821F490414160206881684F
:1032A00021F02A0181602068016841F0010101607C
:1032B0002046BDE8104001F0F9BA000010B5B6B0E4
:1032C0000446142130A8FDF7AFF8C0216846FDF789
:1032D000ABF81E492068884235D100201F9001219B
:1032E0000446CDE900106846FEF77AFA08B1FDF70A
:1032F000D9F81748016841F010010160006800F03A
:103300001000359012481038016841F00101016049
:1033100000680DF1C00C022100F0010035904FF45F
:10332000C06007238CE8130001220A48CDE933234B
:1033300030A9FDF7AFFB002205212520FEF79EF8FE
:103340002520FEF78DF836B010BD000000100140BA
:10335000F0440258000002582DE9F8430446D0F822
:103360008800984616460D46202802D00220BDE867
:10337000F883A5B19EB10021C4F890102120C4F8B3
:1033800088001834FDF7A8FC814654F8100CA68775
:10339000E6872027183CB0F5805F02D003E00120CB
:1033A000E5E7206910B12E46002510E000260EE06A
:1033B0008021204601F0DAFCC0B9DEB116F8010B1D
:1033C00021688862B4F85600401EA4F85600B4F88C
:1033D00056004B464FF00002CDF800800028E7D1A0
:1033E0004FF04001204601F0C1FC48B1C4F888709C
:1033F0000320BCE735F8020B2168C0F30800E0E7C2
:10340000C4F888700020B2E77047FEE70148FDF776
:10341000C1BC0000BC1900240148FDF7EFBC00004E
:10342000BC190024806B0021826B02B11165C26B54
:1034300002B1116500F05CBDCA074FF028034FF0E0
:10344000000210B506D090F84140422233EA04044D
:1034500000D0F2228C0707D590F8414042F0440298
:10346000A34301D042F0B0020B0401D542F0B802F0
:10347000102904D0202905D0402906D007E042F0C9
:10348000900204E042F0200201E042F040020068B5
:1034900001689143016010BD0EB54FF47A738DE859
:1034A0000D00034801230A46A021FDF795FD0EBD3E
:1034B000BC1900242DE9F04106460C4611F0070026
:1034C00002F00701C0F108078846C2F3C7050FD014
:1034D0007DB1D01B00F00708C0F3C70547B33A46DB
:1034E0002146304600F02AF8E0193E44C4B21FE0FD
:1034F0004DB90A460EE008222146304600F01EF87B
:1035000008340836E4B2681EC5B2F4D2B8F100003F
:1035100012D0024621463046BDE8F04100F00EB818
:1035200008222146304600F009F808340836E4B293
:10353000681EC5B2F4D2E9E7BDE8F0813EB5642368
:103540008DE80D000E4801230A46A021FDF7F6FD87
:1035500004460B48FDF75BFC2028FAD14FF4967522
:103560000748A0212A462B46FDF7B4FC0328F7D0D4
:103570000348FDF74CFC2028FAD120463EBD000050
:10358000BC19002401688A69D243920701D4002241
:103590008A6200688169C943C90703D0816941F023
:1035A0000101816170472DE9F047044690F8410020
:1035B0002822002508218243206804D0C16184F8B4
:1035C0004050BDE8F087876986694FF0FE08826841
:1035D000D0F80CC04FF40049E36808EA16460CF036
:1035E000FE08022BC7F30047C2F3090207D0494681
:1035F0002046FFF721FF324684F8405010E00623B2
:1036000006F0060603EAD2139E420ED1A36C5B1CA1
:10361000A364A36C022BD4D1A564C16184F840508B
:1036200039462046FDF7B5FBCBE749462046FFF774
:1036300003FF424684F84050F2E7000070B5444A68
:10364000044690F84100002584F84250E262658506
:10365000626C282842EA0102626433D0292831D002
:103660002A282FD048F203012046FFF7E5FE204626
:10367000FFF788FF94F84100602813D0202184F8D8
:10368000411020688269D24392060BD48269D243EA
:10369000D20605D41022C261606C40F00400606460
:1036A0002068C1616563A16B206B2A4E19B1112896
:1036B00012D0212810D0E16BF1B3122824D0222897
:1036C00022D03EE003212046FFF7B6FE2249282003
:1036D000616384F84100E6E720680168490403D586
:1036E000016821F480410160A06BFDF7CFF901284A
:1036F00027D0A06B066584F84050A06BFDF784F8D6
:10370000002823D0A06B16E020680168090403D5C7
:10371000016821F400410160E06BFDF7B7F9012871
:103720000FD0E06B066584F84050E06BFDF76CF855
:1037300000280BD0E06B00E003E0016DBDE87040B5
:1037400008472046BDE8704000F0D2BB70BD0000C5
:103750000000FFFF253400085D3C000870B50446FA
:10376000164AC843002541074FF02000E262256356
:1037700084F8410084F84250656311D42068616A7E
:10378000406A0870606A401C6062208D40B1618DA3
:10379000401E2085491E6185606C40F00400606415
:1037A00048F203012046FFF747FE21681020C86158
:1037B000204684F84050FDF70DFC70BD0000FFFF6F
:1037C0002DE9F05F0D46016820270446D1F80080FE
:1037D000C66A90F84100CF61212808D0292806D078
:1037E00022280BD02A2809D028280ED014E048F22D
:1037F00001012046FFF720FE21200CE048F20201E3
:103800002046FFF719FE222005E048F2030120467A
:10381000FFF712FE0020206320687349426842F4DB
:1038200000424260206842680A4042602046FFF73A
:10383000A9FE6FEA08016D4A6D4BDFF8B8C1480474
:10384000DFF8B491DFF8B4A1DFF8B4B1DFF8B4E188
:103850000BD42068D0F8008028F48048C0F800809D
:10386000A06B0CE04068608537E0080435D4206820
:10387000D0F8008028F40048C0F80080E06B60B306
:1038800000689042EED09842ECD06045EAD04845BE
:10389000E8D05045E6D05845E4D07045E2D0594ACA
:1038A00018329042DED0584A9042DBD0564A183245
:1038B0009042D7D0544A30329042D3D0524A483204
:1038C0009042CFD0504A60329042CBD04E4A7832AC
:1038D0009042C7D04C4A9032C4E7E84340070FD427
:1038E000206825F00405626A406A1070606A401C16
:1038F0006062208D20B1628D401E2085521E62853F
:10390000608D18B1606C40F004006064E843DFF83B
:10391000FC80C00632D4C80630D4618D102051B16D
:103920002168C861606C40F00400606416B3B6F1B1
:10393000807F1FD022E094F84110282902D1B6F1EF
:10394000007F04D094F84110292905D00FE02946C2
:103950002046FFF703FF11E0464508D02168C86103
:103960002046FFF70FFE204600F052F806E02168DF
:10397000C86103E0616C2046FFF760FE002684F812
:103980004260606C666368B1616C2046FFF756FE6A
:1039900094F84100282815D129462046BDE8F05F5B
:1039A000FFF7DCBEE06A4546A8420DD0204600F095
:1039B0002FF8E56284F841702663204684F8406061
:1039C000FDF708FBBDE8F09F94F8410084F84170D2
:1039D00022282663204684F8406002D0FDF7B1FC1F
:1039E000F0E7FDF7ADFCEDE700E800FE1000024057
:1039F000280002404000024058000240700002408F
:103A000088000240A0000240100402400000FFFFB6
:103A100070B5044600680025016884F84250C94327
:103A20004A0403D4016821F4804104E0090403D46A
:103A3000016821F40041016094F8411028202929EF
:103A400011D094F841102A290CD1222184F8410088
:103A5000216302212046FFF7EFFC204684F8405006
:103A6000FDF76EFC70BD212184F841002163012126
:103A70002046FFF7E1FC204684F84050FDF761FC4A
:103A800070BD00002DE9F047044600680026894615
:103A900017464FF0200835468169C90641D51021E7
:103AA000C1612FE0B9F1FF3F2CD0FDF715F9C11B23
:103AB000494502D8B9F1000F24D12068426894F832
:103AC0004210836902F48042DB431B0415D4B2F533
:103AD000804F12D0202910D0416841F480414160CC
:103AE000FDF7FAF8074608E0FDF7F6F8C01B1928BD
:103AF00003D9012645F0200504E020688069C04311
:103B00008006F1D420688069C043800602D5002E6B
:103B1000C8D003E016B92168C1F81C80012645F021
:103B2000040521688869C20505D54FF48072CA6111
:103B300045F00105012641050AD5216880054FF4AD
:103B4000806245F00805CA614FF0010602D40AE020
:103B5000800507D5206801264FF4007145F0020565
:103B6000C16100E08EB12046FFF70CFD2068002106
:103B7000074F43683B404360606C2843606484F8AF
:103B8000418084F8421084F840103046BDE8F08748
:103B900000E800FE2DE9F843174604461548DAB25E
:103BA000DDE908981E4600900023204600F088F9C1
:103BB00042464946204600F01AFAB8B9012EFDB235
:103BC00008D02068390A816242464946204600F002
:103BD0000EFA58B920688562002240214B462046E3
:103BE000CDF8008000F099F9002800D00120BDE850
:103BF000F8830000002000802DE9F84304461648B1
:103C000017461E46DAB20090C3022046DDE9089846
:103C100000F056F942464946204600F0E8F9B8B9A6
:103C2000012EFDB208D02068390A81624246494619
:103C3000204600F0DCF958B9206885620022802116
:103C40004B462046CDF8008000F067F9002800D0F0
:103C50000120BDE8F8830000002000802DE9F0413C
:103C600090F840300446C06A012B0DD0CB430125AB
:103C700084F840509E066FEA020208D4950606D4E6
:103C80002046FFF79DFD6FE00220BDE8F081384D32
:103C9000DE064FF080762DD4D7062BD4638D10220C
:103CA0006BB12168CA61616C41F00401616408B1C3
:103CB000B04259D1616C2046FFF7C0FC54E094F843
:103CC0004130282B02D1B0F1007F04D094F841108C
:103CD000292904D00BE02046FFF740FD44E0A8422C
:103CE00005D02068C2612046FFF74CFC39E020680F
:103CF000C26139E05F0715D4570713D4618D61B1F4
:103D00002168626A496A1170616A491C6162218D89
:103D1000491E2185618D491E6185618D21BBA842A7
:103D20001FD121E01D0705D4150703D42046FFF756
:103D30003AFC19E0990717D4910715D4618D69B140
:103D4000606A216800788862606A401C6062608DE9
:103D5000401E6085208D401E208505E0B04200D0C9
:103D600010B92046FFF754FE002084F840008CE78D
:103D70000000FFFF70B521A001F04AF8274D002494
:103D8000E1B227A0295501F043F8E043000702D132
:103D900025A001F03DF8641CA4B2FF2CF0D94FF42B
:103DA00080741E4800212246FFF784FB1FA001F00B
:103DB0002FF8264800212246FFF76EFB234E0024F1
:103DC000285D315D814216A006D001F021F820A0C7
:103DD00001F01EF8002070BD01F01AF8E043000762
:103DE00002D111A001F014F8641CA4B2FF2CE7D991
:103DF00026A001F00DF8012070BD00003C3C2D45CF
:103E00004550524F4D2D494E464F2D3E3E20D0B489
:103E1000C8EBB5C4CAFDBEDD0A000000C4630024BF
:103E200030782530325820000A0D00003C3C2D45EA
:103E30004550524F4D2D494E464F2D3E3E20B6C166
:103E4000B3F6B5C4CAFDBEDD0A000000C464002498
:103E50003C3C2D454550524F4D2D4552524F522D11
:103E60003E3E20B4EDCEF33A493243204552525003
:103E7000524F4DD0B4C8EBD3EBB6C1B3F6CAFDBEBA
:103E8000DDB2BBD2BBD6C20A000000003C3C2D45CF
:103E90004550524F4D2D494E464F2D3E3E20493202
:103EA00043284154323443303229B6C1D0B4B2E24F
:103EB000CAD4B3C9B9A63D3D3D3D3D3D3D0A0000D4
:103EC00070B50068C1F3090141EA0241074D049C45
:103ED00019434FF480664268214306EA54532B434A
:103EE0009A4321F000410A43426070BDFF63FF0323
:103EF00010B590F841200021602A05D0016380F8B8
:103F00004010FCF783FF10BD202280F841200163A0
:103F100080F84010FCF73CFF10BD2DE9F0411D4634
:103F200017460E460446DDF8188028E0424629462A
:103F30002046FFF7A7FD10B10120BDE8F081681C05
:103F40001DD0FCF7C9FEA0EB0800A84200D8B5B907
:103F50002068806936EA00000FD00020B8420ED1F8
:103F6000626C002084F84000202142F0200262644C
:103F700084F8411084F84200DEE70120EEE7206873
:103F8000806936EA000004D00020B842CED000207C
:103F9000D3E70120F9E770B516460D4604461FE049
:103FA000324629462046FFF76DFD08B1012070BD5D
:103FB000FCF792FE801BA84200D88DB9206880696A
:103FC000C04380060CD5626C002084F8400020219C
:103FD00042F02002626484F8411084F84200E5E770
:103FE00020688069C0438006DAD4002070BD70B5B7
:103FF00016460D46044621E0324629462046FFF784
:1040000041FD08B1012070BD681C17D0FCF764FEAB
:10401000801BA84200D88DB920688069C043800702
:104020000CD5626C002084F84000202142F0200270
:10403000626484F8411084F84200E3E720688069F4
:10404000C0438007D8D4002070BD00000E4A002174
:104050000E4810B501F096F90D4C00210A4A2432A1
:1040600020600C4801F08EF9074A002160600A4880
:10407000483201F087F9044A0021A06007486C32F9
:1040800001F080F9E06010BD106B000805450008E4
:10409000000000240D4500081745000821450008D0
:1040A000F0B587B014216846FCF7BEF91D480168D9
:1040B00041F001010160016801F001010591016811
:1040C00041F002010160016801F0020105910168FF
:1040D00041F08001016000680122134E032100F0CD
:1040E000800005903046FCF7EBFD104F01220821BF
:1040F0003846FCF7E5FD00246946012503200090C1
:10410000CDE9015430460394FCF7C4FC082000902C
:10411000CDE90154694638460394FCF7BBFC07B06F
:10412000F0BD0000E04402580004025800000258AC
:104130001348002110B5114C0123124A0460C0E954
:104140000121C0E9033141618161C1610162FCF774
:1041500061FE08B1FCF7A6F909480021FCF7C2FD91
:1041600008B1FCF79FF906480021FCF7E7FD00289D
:1041700003D0BDE81040FCF795B910BD001C0058F5
:10418000BC190024FFECC0101848002110B5164CD3
:104190000C224FF4E1330460C0E90131C160C0E991
:1041A00004128161C161016241628162FFF750F8CE
:1041B00008B1FCF777F90D480021FEF75CFE08B165
:1041C000FCF770F909480021FEF72FFE08B1FCF753
:1041D00069F90648FEF707FE002803D0BDE8104045
:1041E000FCF760B910BD000000100140101A002457
:1041F000FEE7FEE770B50E4A111D081D16680D6832
:1042000004680D490B480968B1FBF0F10BA000F000
:10421000FFFD16A033462A46214600F0F9FD18A0FE
:1042200000F0F6FDBDE8704016A000F0F1BD000002
:1042300000E8F11F40420F001C0000240D0A43500B
:1042400055203A2053544D33324837343358494877
:10425000362C204247413234302C20E4B8BBE9A24E
:10426000913A2025644D487A0D0A000055494420B2
:104270003D202530385820253038582025303858F2
:104280000A0D00002A2A2A2A2A2A2A2A2A2A2A2A1F
:104290002A2A2A2A2A2A2A2A2A2A2A2A2A2A2A2A7E
:1042A0002A2A2A2A2A2A2A2A2A2A2A2A2A2A2A2A6E
:1042B0002A2A2A2A2A2A2A2A2A2A2A2A2A2A2A2A5E
:1042C0002A0A0D002DE9F047454D044689464FF076
:1042D000000A2868C04380070AD0414E283E306853
:1042E00020F080603060FCF7F7FC0746B04608E03D
:1042F0000120BDE8F08700BFFCF7EEFCC01B0228E0
:1043000067D8D8F800000001F6D4206829684FF477
:10431000FE0721F47C313E0241EA00302860207A19
:10432000A389B4F804C040022D4D2D495B1E227CA8
:10433000ACF1010C1035091DA0F5007080B2521EC1
:10434000CCF3080C07EA034340EA0C00184306EAE2
:104350000262104328600868626920F0C0001043C0
:1043600008600A68A06922F0200202430A60281D42
:104370000A6822F010020A6002684FF6F873E469D6
:104380009A4342EAC40202600868B9F1000F40F0A3
:1043900010020A6011D00868B9F1010F11D040F481
:1043A00000100860D8F80000444640F08060C8F86B
:1043B0000000FCF791FC05460DE0086840F4002081
:1043C000EFE740F48010ECE7FCF786FC401B022886
:1043D00001D903208DE720680001F5D5504688E714
:1043E000284402582DE9F047454D044689464FF0D0
:1043F000000A2868C04380070AD0414E283E306832
:1044000020F080503060FCF767FC0746B04608E0BB
:104410000120BDE8F08700BFFCF75EFCC01B02284E
:1044200067D8D8F800008000F6D4208829684FF4B7
:10443000FE0721F07C713E0241EA00502860207A9C
:10444000A389B4F804C040022D4D2D495B1E227C87
:10445000ACF1010C1835091DA0F5007080B2521E98
:10446000CCF3080C07EA034340EA0C00184306EAC1
:104470000262104328600868626920F440601043BB
:1044800008600A68A06922F4007202430A60281DCD
:104490000A6822F480720A6002684FF6F873E469D1
:1044A0009A4342EAC40202600868B9F1000F40F47E
:1044B00080720A6011D00868B9F1010F11D040F084
:1044C00080700860D8F80000444640F08050C8F87A
:1044D0000000FCF701FC05460DE0086840F4800090
:1044E000EFE740F40000ECE7FCF7F6FB401B022886
:1044F00001D903208DE720688000F5D5504688E774
:1045000028440258012000F000FFFBE710B501200D
:1045100000F0FBFEFBE710B5012000F0F6FEFBE724
:1045200010B5012000F0F1FEFBE74FF0E02010B5E0
:10453000006902F031F9012803D0BDE8104001F014
:1045400055BE10BD30B59DB04C216846FBF76CFFE1
:10455000202113A8FBF768FF0220FCF7C1FF2049C8
:10456000002520480A6822F001020A6009680168F3
:1045700041F440410160016801F440411B91016830
:104580008904FCD502200990402401210091C20336
:1045900001920A900FABCDE90B040C210D900E9007
:1045A00083E8230068461295FEF72EF808B172B62C
:1045B000FEE708221A94CDE91624D30113AA3F205E
:1045C0000321CDE9184382E82300022113A8FDF757
:1045D000DDFD002801D072B6FEE71DB030BD000041
:1045E0002C040058184802582C48F0B52C4A016891
:1045F00041F470010160106800F00F00072804D238
:10460000106820F00F00C01D106026490020254CC6
:1046100010340B68244D43F001030B6020600B68DD
:104620002B400B60136803F00F03072B04D91368AA
:1046300023F00F03DB1D13601A4C1C4A18341C4B6B
:10464000261D371D2060174C1A4D28343060261D5A
:104650003860371D23603B1D35601C1D3A60251DE9
:104660002E1D1860331D22602860326018600A68B1
:104670000C4B114C22F4802260330A6018602068D1
:104680006FF30F00B0F1005F03D20C490120C1F8B5
:10469000080143F2D2000A490860F0BD88ED00E04D
:1046A00000200052004402587FEDF6EA800201012A
:1046B000000202020000FF010010005C00800051B7
:1046C000004000520148FEF7DCBA0000A41A0024A2
:1046D0002DE9F0472A4B4FF0804A2A4D0268984254
:1046E000294E2A4F2A4C09D0504507D0A84205D060
:1046F000B04203D0B84201D0A04205D1D1F804C0E5
:1047000022F070024CEA0202DFF888C0DFF88880ED
:104710009842DFF888900FD050450DD0A8420BD0BA
:10472000B04209D0B84207D0A04205D0604503D0BE
:10473000404501D0484503D1CD6822F440722A4358
:104740004D6922F080022A43026098428A68C26260
:104750000A68826207D0A04205D0604503D0404578
:1047600001D0484501D10969016301214161016915
:10477000C90703D0016921F001010161BDE8F0879B
:10478000000001400004004000080040000C004010
:104790000004014000400140004401400048014045
:1047A00030B5416EB9B101680D4B03F108048A6858
:1047B0008968C2F34262490F5D5C615C2D01B5FB03
:1047C000F1F1A0F86A10995CA25C0901B1FBF2F169
:1047D000A0F8681030BD0121A0F86A10F8E70000C9
:1047E000B86B000890F82810090706D50168836B9C
:1047F0004A6822F400421A434A6090F82810C90718
:1048000006D00168C36A4A6822F400321A434A603B
:1048100090F82810890706D50168036B4A6822F4CE
:1048200080321A434A6090F82810490706D501687B
:10483000436B4A6822F480221A434A6090F8281099
:10484000C90606D50168C36B8A6822F480521A43F0
:104850008A6090F82810890606D50168036C8A687A
:1048600022F400521A438A6090F82810490611D5A4
:104870000168436C4A6822F480121A434A60416C12
:10488000B1F5801F06D10168836C4A6822F4C0022A
:104890001A434A6090F82810090606D50168C26CD0
:1048A000486820F400201043486070472DE9F84321
:1048B00000250446C0F89050FCF70EFA80462068A8
:1048C00020266FF07E470068000713D5002243467C
:1048D00031042046009700F049FA58B1216851E8A8
:1048E000000F20F0800041E80002002AF6D1C4F851
:1048F000886021E020680068400722D500224346F6
:104900004FF480012046009700F030FAC8B12068CB
:1049100050E8001F21F4907140E80012002AF6D1FF
:104920002068083050E8001F21F0010140E8001223
:10493000002AF5D1C4F88C60032084F88450BDE8C7
:10494000F883C4F88860C4F88C60E56625670020A9
:1049500084F88450F3E710B5806B0021A0F85E1056
:10496000A0F85610FEF7AFFA10BD000010B50268AF
:1049700052E8001F21F4907142E80013002BF6D199
:104980000E4B0268083252E8001F194042E800143A
:10499000002CF6D1C16E012908D1026852E8001F2F
:1049A00021F0100142E80013002BF6D10021202253
:1049B000C0F88C20C166416710BD0000FEFFFFEF0C
:1049C0002DE9F04304468068D84E87B0D84B216863
:1049D000D4E90427D4F81CC010430A68002547EA2C
:1049E0000C073843324002430A602068E26841689D
:1049F00021F44051114341602268A1699A4201D0DB
:104A0000206A01439768DFF82CC3CB4ECB4807EAF6
:104A10000C070F4397602168676ACA6A22F00F0289
:104A20003A43CA622268B2420ED1006800F03800F0
:104A3000182873D047DCB8B3082879D010286FD174
:104A400078E028287ED17BE0BD498A4209D1006800
:104A500000F00700062875D2DFE800F0546A6C6E9B
:104A60007072B8498A4209D1006800F00700062830
:104A700068D2DFE800F0475D5F616365B2498A4252
:104A800009D1006800F0070006285BD2DFE800F0DB
:104A90003A5052545658AD498A420BD1006800F042
:104AA000070006284ED200E010E0DFE800F02B41BE
:104AB00043454749A6498A420AD1006800F03800B8
:104AC000182839D0B7DD2028BBD13CE001203AE0DE
:104AD000A0498A4209D1006800F00700062831D2B7
:104AE000DFE800F01026282A2C2E9B498A420BD1A1
:104AF000006800F00700062824D2DFE800F0031960
:104B00001B1D1F2100201EE09A421BD18B48001D57
:104B1000006800F00700062814D202E00CE007E06D
:104B200010E0DFE800F0030507090B0D02200AE0A2
:104B3000042008E0082006E0102004E0202002E025
:104B4000402000E080208549DFF814829A42854A9F
:104B50004FF400434FEA21174FF000064ED11028C2
:104B60001AD006DC022809D004280BD008287CD1F2
:104B70000DE020283ED0402877D13DE0FCF7DAFC5C
:104B8000014610E06846FCF7E7FC01990BE003A83A
:104B9000FCF784FD049906E01068800605D51068CE
:104BA000C0F3C100C140002970D0606A676838F85E
:104BB000102007EB4703B1FBF2F0834255D8B0EB6E
:104BC000073F52D8002308461946FBF7E3FB02468D
:104BD0007808130E120243EA012110183A46714177
:104BE0000023FBF7D7FB604AA0F5407191423CD807
:104BF00021688FE03946D8E71946D6E7D4F81CC0BB
:104C00004FF6EF799C4546D1082819D005DC58B1FC
:104C100001280CD0042875D10DE0102815D02028CB
:104C200035D040286ED134E0FDF72EFC01E0FDF7D1
:104C30003DFC014610E06846FCF78EFC01990BE054
:104C400003A8FCF72BFD049906E01068800604D544
:104C50001068C0F3C100C140C1B1636A606838F830
:104C60001330B1FBF3F1490000E04BE001EB5001E0
:104C7000B1FBF0F0A0F11001494543D84FF6F073B5
:104C80002168C0F342021840104343E043E0394634
:104C9000E3E71946E1E7082819D005DC58B10128F7
:104CA0000CD004282ED10DE0102815D020282BD0B0
:104CB000402827D12AE0FDF7E7FB01E0FDF7F6FBEE
:104CC000014610E06846FCF747FC01990BE003A899
:104CD000FCF7E4FC049906E01068800604D510682F
:104CE000C0F3C100C140B1B1636A606838F81330E5
:104CF000B1FBF3F101EB5001B1FBF0F0A0F11001B9
:104D0000494505D9012506E03946EDE71946EBE7A7
:104D1000216880B2C8600120A4F86A00A4F8680085
:104D200028466667A66707B0BDE8F083F369FFCF42
:104D3000000C0058FFF4FF110010014054440258C9
:104D40000044004000480040004C0040005000403B
:104D50000014014000780040007C00400090D00327
:104D6000A06B000800440258FFFC0F002DE9F0473B
:104D7000994617460D460446089E4FF0000833E05A
:104D8000701C31D0FBF7A8FFA0EB0900B04218D887
:104D9000BEB120680168490726D5802D24D0402D5A
:104DA00022D0C169C94309070DD4082505622046F0
:104DB000FFF7DCFDC4F89050012084F88480BDE842
:104DC000F0870320FBE7C069C04300050CD42168CD
:104DD0004FF4006008622046FFF7C8FD2021C4F8A8
:104DE000901084F88480ECE72068C06935EA000000
:104DF00004D00020B842C3D00020E0E70120F9E74A
:104E00000148FEF761B80000101A0024FEE7000018
:104E10000FB4054B10B503A9044A029800F028F816
:104E200010BC5DF814FB0000C9520008A400002467
:104E3000090700284FEA116104DB00F1E02080F847
:104E40000014704700F00F0000F1E02080F8141DFE
:104E5000704702E008C8121F08C1002AFAD1704743
:104E60007047002001E001C1121F002AFBD17047EA
:104E70002DE9FF4F8DB00F460546002606E0252898
:104E80000BD0DDE90F1290476D1C761C28780028A6
:104E9000F5D111B03046BDE8F08F0024A246A146FE
:104EA0000122E94900E0044315F8013F203B02FAE2
:104EB00003F00842F7D128782A2810D06FF02F028B
:104EC0002878A0F13001092914D80AEB8A0102EBF5
:104ED000410144F0020400EB010A6D1CF0E701CF30
:104EE0005FEA000A03D544F40054CAF1000A44F012
:104EF00002046D1C28782E2817D115F8010F44F0F4
:104F000004042A280ED06FF02F022878A0F1300177
:104F100009290AD809EB890102EB410100EB0109DB
:104F20006D1CF2E757F8049B6D1C28786C280FD095
:104F300006DC4C2817D068280DD06A2814D104E06C
:104F4000742810D07A280FD10DE044F400140AE040
:104F500044F4801401E044F440146978814202D1A1
:104F600004F580146D1C6D1C28786E281ED00CDC96
:104F7000632830D004DC00288BD0582811D19FE062
:104F8000642867D069280CD164E073282DD004DC34
:104F90006F2872D0702804D194E075286ED07828DC
:104FA0006DD0DDE90F129047761C4BE1C4F302503F
:104FB000022806D0032809D0042801CF09D00660B2
:104FC00040E101CFF117C0E900613BE101CF06806C
:104FD00038E1067036E117F8040B8DF80000002068
:104FE0008DF80100EB46012003E057F804BB4FF0B9
:104FF000FF3061074FF0000102D40DE008F101011C
:10500000884649450FDA8045F8DB1BF8081000296F
:10501000F4D108E008F1010188468142FADB1BF86F
:1050200008100029F6D1DDE90F23AAEB080081461C
:10503000214600F031F9304400EB080604E0DDE9D8
:105040000F121BF8010B9047B8F10108F7D2214667
:105050004846F2E00A21C4F302524FF0000B0891D7
:10506000022A04D001CFC117032A09D00AE0FF1D8C
:1050700027F00707F7E8020108E02CE01EE01FE038
:1050800000B2C117042A01D140B2C117021E71F14A
:10509000000206DA0023D0EB030063EB01012D22AE
:1050A00002E0220504D52B228DF82420012203E002
:1050B000E20701D02022F7E7904653E00A210BE0F7
:1050C000102109E010214FF0000B44F004044FF0D0
:1050D0000809089103E008214FF0000B0891C4F380
:1050E0000252022A04D001CF0021032A06D006E092
:1050F000FF1D27F00707F7E8020103E080B2042A4A
:1051000000D1C0B24FF0000822072BD52A78702AB0
:1051100007D0DDF820C08CF0100C5CEA0B0C05D039
:105120000EE040228DF82420012208E050EA01031D
:1051300006D030238DF824308DF8252002229046A9
:10514000089B83F0080353EA0B030BD150EA0102DA
:1051500001D1620706D530228DF824204FF00108D6
:10516000A9F101092A78582A04D038A20B9208AA7A
:105170000A920BE03AA2F9E75B46089AFBF70AF9B4
:105180000B9B9B5C0A9A521E0A92137050EA010212
:10519000F2D10A98ADEB000000F1200B600702D5B8
:1051A00024F4803401E04FF00109D94502DDA9EB78
:1051B0000B0000E0002000EB0B0141440890AAEB3B
:1051C000010AE00306D4DDE90F232146504600F032
:1051D00063F806444FF0000908E009A911F8090036
:1051E000DDE90F12904709F10109761CC145F4DB96
:1051F000E0030CD5DDE90F232146504600F04CF8C2
:10520000064404E0DDE90F1230209047761C08992F
:10521000481E08900029F5DC08E00A980A990078F1
:10522000491C0A91DDE90F129047761CBBF1000181
:10523000ABF1010BF1DC21465046DDE90F2300F014
:1052400019F806446D1C21E609280100303132337B
:1052500034353637383961626364656600000000B2
:10526000303132333435363738394142434445469C
:10527000000000002DE9F041044600251E461746B7
:10528000880404D405E039462020B0476D1C641E14
:10529000F9D52846BDE8F0812DE9F0410446002506
:1052A0001E469046C80301D5302700E02027880419
:1052B00004D505E041463846B0476D1C641EF9D55B
:1052C0002846BDE8F081000013B5044801224FF6DE
:1052D000FF736946FEF740F800981CBD101A0024C1
:1052E000FCF738F8FFF72EF9FEF7DAFEFEF74CFF71
:1052F000FEF71EFFFEF73EFDFEF77CFF00F014F800
:10530000FEF7A4FE00F022F8FEE710B5EFF30581EA
:1053100011B16FF0050404E04FF0000408B100F093
:1053200005FE204610BD0000EFF3058010B16FF0C0
:10533000050070470449086810B14FF0FF3070470E
:1053400001220A60002070477400002410B5EFF3BA
:10535000058010B16FF0050010BD084801680129F3
:1053600002D04FF0FF3010BD054A002182F8141D15
:105370000221016000F042FE002010BD74000024F4
:105380000BE000E02DE9FF414FEA01034FF000057B
:10539000EFF30581039561BB58B34FF080064FF0E2
:1053A00018014FF000044AB3176807B13C469769EB
:1053B0001FB139467F1E382F02D21779FF0703D05D
:1053C000002004B0BDE8F081576907B1BE08D2F8EB
:1053D00008C0BCF1000F0DD0D5685C2D18D3126940
:1053E0003AB137B18DE806103246214601F0A9F9ED
:1053F00003900DE0D7685FB912694AB903AACDE9F5
:105400000012B2B2214601F06FF9012800D00395D5
:105410000398D6E72DE9F041134C0F460546E668A0
:105420002068001D00F04AFC681C07D137B12168D4
:10543000BDE8F0410D48091D00F094BC20683544DA
:10544000B5424560216805D2A06B091DBDE8F04159
:1054500000F070BC606B091D00F06CFCA06A854216
:1054600000D2A562BDE8F08124000024E01F0024E2
:105470002DE9F041054600F081FC2D4C2D4FA06830
:10548000401CA060206810B1606930B32BE025603B
:10549000A068012827D1002606EB860007EB8000D4
:1054A00000F03AFC761C382EF6D3234800F034FC8A
:1054B0002148143000F030FC1F48283000F02CFC4C
:1054C0001D483C3000F028FC1B48503000F024FC04
:1054D000194860631430A06305E0E86A2168C96A6E
:1054E000814200D82560606A401C60626864E86A96
:1054F0002169884200D9206100EB8000291D07EB5B
:10550000800000F02FFC00F059FC606900280CD0EE
:105510002068E96AC06A884207D208494FF0805083
:105520000860BFF34F8FBFF36F8FBDE8F0810000BD
:1055300024000024301B0024901F002404ED00E010
:1055400038B500F01BFC104C2068C8B90F4800F0BB
:10555000E3FB0E48143000F0DFFB0C490020E16053
:1055600014312161A1F582730090A1F1B4021021E0
:105570000A2000F051FE206010B105A100F0A0FC4F
:10558000BDE8384000F01ABC60000024E42000248C
:10559000546D72510000000030B4026C0B46002ABA
:1055A0000BD0D0E902411144C160A14201D301688E
:1055B000C160184630BCFAF71EBF30BC70472DE9F9
:1055C000F041856B1746026C0446002682B1C7B1D4
:1055D000E068FAF710FFE168206C2268091AE160C0
:1055E000914202D2A168081AE060022F16D017E09B
:1055F0002068A8B9A06801F04FF906460020A06015
:105600000EE06068FAF7F7FED4E90101226C10445D
:105610006060884204D32068606001E005B16D1EBF
:105620006D1CA5633046BDE8F08110B5044690F8C6
:10563000590058B101280CD002280FD0502080F317
:105640001188BFF34F8FBFF36F8FFEE7206B00F021
:10565000C9FB2046BDE8104000F0C4BB10BD0000EF
:1056600011484FF4705110B5420706D00E49C01DC5
:1056700020F00700411AC1F570510C4C0023014481
:105680000839A4F1180221F00701C4E900030C1A3B
:1056900011604B600B60C0E9001494604FF0004152
:1056A0005460516110BD0000C42700249000002404
:1056B000154E4FF08058154CDFF85490A6F29C47D9
:1056C00012E000BF00F05AFBF068C568281D00F02A
:1056D000F5FAA068401EA0606068401E606000F09F
:1056E0006DFB2846FFF7A1FF60680028EAD1386803
:1056F000012805D9C9F80080BFF34F8FBFF36F8F22
:1057000000F008FBF0E70000CC1F00242400002478
:1057100004ED00E070B51D46049C51B1C4F80020B2
:10572000C4E90F010121204600F0AAFD84F84C5085
:1057300070BD2460F4E72DE9F05F88469A46910039
:105740001546DDE90B940A9EA5228346206BFAF7E5
:1057500064FE206B6FF0030101EB8501084420F02B
:105760000707780707D0502080F31188BFF34F8FC9
:10577000BFF36F8FFEE7B8F1000F4FF000050ED0BA
:105780000020221818F8001082F8341018F80010C1
:1057900011B1401C1028F4D384F8435001E084F880
:1057A0003450382E00D33726E662201DC4E9136535
:1057B00000F0BDFA04F1180000F0B9FA6565C6F111
:1057C0003800A06184F85850524624615946384642
:1057D000646200F05BFAB9F1000F206001D0C9F8F3
:1057E0000040BDE8F09F000030B5114900E01146CF
:1057F0000A688242FBD34B685C18844203D1446838
:10580000084623444B6043681D18954209D1084C53
:10581000183C2468A24209D052681A4442600A68BF
:1058200012680260814200D0086030BD0460F9E770
:105830009000002470B50D4D914241604FF000047E
:10584000006106D88169D21A8A4206D2011D2869F0
:1058500007E09A4203D2994201D3012403E0011DDB
:10586000E86800F067FA204670BD00006000002480
:1058700010B5044600F082FAA06B28B15FF0000476
:1058800000F09CFA204610BD0124F9E730B53C4DEC
:1058900089B06BE00498002806DA059ADDE9060174
:1058A00090470498002861DB069C606910B1201DB8
:1058B00000F004FA03A800F0D5F8024604980A287C
:1058C00054D2DFE800F00505052D304705052D30E1
:1058D00094F8280040F0010084F82800A069059998
:1058E0000B4601442046FFF7A5FF50B3216A20462E
:1058F000884794F82800400738D500200090059884
:105900000023A16942181946204601F0CDF8C0B91C
:10591000502080F31188BFF34F8FBFF36F8FFEE7E6
:1059200094F828001EE094F8280040F0010084F864
:1059300028000598A06128B1811813462046FFF77A
:1059400079FF13E0502080F31188BFF34F8FBFF32E
:105950006F8FFEE794F82800810703D4204600F0FB
:1059600041FA03E020F0010084F8280028680022B2
:1059700004A900F0DFFD00288CD109B030BD000083
:10598000600000242DE9FC410F46054600F07AFB3B
:1059900001A800F067F80446019818B100F0F2FF82
:1059A000BDE8FC81254EAFB130690068D0B3002757
:1059B0003068291B3A4600F097FA00F0E3FF002810
:1059C000EED11F494FF080500860BFF34F8FBFF3F7
:1059D0006F8FE5E7A542EBD800F0D4FFF0682746CB
:1059E000C068C468201D00F069F994F828004107D8
:1059F00019D5A0692B463A4641192046FFF71AFFF0
:105A0000A8B100202A46034601460090204601F036
:105A10004BF860B9502080F31188BFF34F8FBFF36C
:105A20006F8FFEE707E020F0010084F82800216A6C
:105A300020468847B4E70127BAE700006000002449
:105A400004ED00E00648416B096829B1416BC96863
:105A5000C9684968816270474FF0FF31FAE700007A
:105A60002400002470B5054600F0A4FE064E04464E
:105A7000B068844203D200F009F8012000E0002061
:105A800028602046B46070BD60000024F8B5194D50
:105A900020E0C068C4680668201D00F00FF9216A84
:105AA0002046884794F82800400713D5A069304461
:105AB000B04206D92461211D6060E86800F03AF91F
:105AC00008E000203246034601460090204600F0E0
:105AD000EBFF38B1E86801680029DAD12969C5E926
